{
  "_format": "hh-sol-artifact-1",
  "contractName": "FidMarketplaceV1",
  "sourceName": "contracts/FidMarketplace.sol",
  "abi": [
    {
      "inputs": [
        {
          "internalType": "uint256",
          "name": "_commissionPercentage",
          "type": "uint256"
        },
        {
          "internalType": "address",
          "name": "_wethAddress",
          "type": "address"
        },
        {
          "internalType": "address",
          "name": "_idRegistry",
          "type": "address"
        }
      ],
      "stateMutability": "nonpayable",
      "type": "constructor"
    },
    {
      "anonymous": false,
      "inputs": [
        {
          "indexed": true,
          "internalType": "uint256",
          "name": "fid",
          "type": "uint256"
        },
        {
          "indexed": true,
          "internalType": "address",
          "name": "buyer",
          "type": "address"
        },
        {
          "indexed": false,
          "internalType": "uint256",
          "name": "amount",
          "type": "uint256"
        },
        {
          "indexed": true,
          "internalType": "address",
          "name": "owner",
          "type": "address"
        }
      ],
      "name": "Bought",
      "type": "event"
    },
    {
      "anonymous": false,
      "inputs": [
        {
          "indexed": true,
          "internalType": "uint256",
          "name": "fid",
          "type": "uint256"
        }
      ],
      "name": "Canceled",
      "type": "event"
    },
    {
      "anonymous": false,
      "inputs": [
        {
          "indexed": true,
          "internalType": "uint256",
          "name": "fid",
          "type": "uint256"
        },
        {
          "indexed": true,
          "internalType": "address",
          "name": "owner",
          "type": "address"
        },
        {
          "indexed": true,
          "internalType": "address",
          "name": "proxyContract",
          "type": "address"
        },
        {
          "indexed": false,
          "internalType": "uint256",
          "name": "amount",
          "type": "uint256"
        },
        {
          "indexed": false,
          "internalType": "uint256",
          "name": "deadline",
          "type": "uint256"
        }
      ],
      "name": "Listed",
      "type": "event"
    },
    {
      "anonymous": false,
      "inputs": [
        {
          "indexed": true,
          "internalType": "address",
          "name": "owner",
          "type": "address"
        },
        {
          "indexed": true,
          "internalType": "uint256",
          "name": "fid",
          "type": "uint256"
        },
        {
          "indexed": true,
          "internalType": "address",
          "name": "buyer",
          "type": "address"
        },
        {
          "indexed": false,
          "internalType": "uint256",
          "name": "amount",
          "type": "uint256"
        }
      ],
      "name": "OfferApproved",
      "type": "event"
    },
    {
      "anonymous": false,
      "inputs": [
        {
          "indexed": true,
          "internalType": "uint256",
          "name": "fid",
          "type": "uint256"
        },
        {
          "indexed": true,
          "internalType": "address",
          "name": "buyer",
          "type": "address"
        }
      ],
      "name": "OfferCanceled",
      "type": "event"
    },
    {
      "anonymous": false,
      "inputs": [
        {
          "indexed": true,
          "internalType": "uint256",
          "name": "fid",
          "type": "uint256"
        },
        {
          "indexed": true,
          "internalType": "address",
          "name": "buyer",
          "type": "address"
        },
        {
          "indexed": false,
          "internalType": "uint256",
          "name": "amount",
          "type": "uint256"
        }
      ],
      "name": "OfferMade",
      "type": "event"
    },
    {
      "anonymous": false,
      "inputs": [
        {
          "indexed": true,
          "internalType": "address",
          "name": "previousOwner",
          "type": "address"
        },
        {
          "indexed": true,
          "internalType": "address",
          "name": "newOwner",
          "type": "address"
        }
      ],
      "name": "OwnershipTransferred",
      "type": "event"
    },
    {
      "inputs": [
        {
          "internalType": "uint256",
          "name": "fid",
          "type": "uint256"
        },
        {
          "internalType": "address",
          "name": "buyer",
          "type": "address"
        },
        {
          "internalType": "uint256",
          "name": "deadline",
          "type": "uint256"
        },
        {
          "internalType": "bytes",
          "name": "ownerSig",
          "type": "bytes"
        }
      ],
      "name": "approveOffer",
      "outputs": [],
      "stateMutability": "nonpayable",
      "type": "function"
    },
    {
      "inputs": [
        {
          "internalType": "uint256",
          "name": "fid",
          "type": "uint256"
        },
        {
          "internalType": "address",
          "name": "to",
          "type": "address"
        },
        {
          "internalType": "uint256",
          "name": "toDeadline",
          "type": "uint256"
        },
        {
          "internalType": "bytes",
          "name": "toSig",
          "type": "bytes"
        }
      ],
      "name": "buy",
      "outputs": [],
      "stateMutability": "payable",
      "type": "function"
    },
    {
      "inputs": [
        {
          "internalType": "uint256",
          "name": "fid",
          "type": "uint256"
        }
      ],
      "name": "cancelListing",
      "outputs": [],
      "stateMutability": "nonpayable",
      "type": "function"
    },
    {
      "inputs": [
        {
          "internalType": "uint256",
          "name": "fid",
          "type": "uint256"
        }
      ],
      "name": "cancelOffer",
      "outputs": [],
      "stateMutability": "nonpayable",
      "type": "function"
    },
    {
      "inputs": [
        {
          "internalType": "address",
          "name": "_idRegistry",
          "type": "address"
        }
      ],
      "name": "changeIdRegistry",
      "outputs": [],
      "stateMutability": "nonpayable",
      "type": "function"
    },
    {
      "inputs": [],
      "name": "commissionPercentage",
      "outputs": [
        {
          "internalType": "uint256",
          "name": "",
          "type": "uint256"
        }
      ],
      "stateMutability": "view",
      "type": "function"
    },
    {
      "inputs": [
        {
          "internalType": "address",
          "name": "owner",
          "type": "address"
        },
        {
          "internalType": "uint256",
          "name": "salt",
          "type": "uint256"
        }
      ],
      "name": "getAddress",
      "outputs": [
        {
          "internalType": "address",
          "name": "",
          "type": "address"
        }
      ],
      "stateMutability": "view",
      "type": "function"
    },
    {
      "inputs": [
        {
          "internalType": "uint256",
          "name": "fid",
          "type": "uint256"
        },
        {
          "internalType": "address",
          "name": "buyer",
          "type": "address"
        }
      ],
      "name": "getOffer",
      "outputs": [
        {
          "components": [
            {
              "internalType": "uint256",
              "name": "amount",
              "type": "uint256"
            },
            {
              "internalType": "bytes",
              "name": "signature",
              "type": "bytes"
            },
            {
              "internalType": "uint256",
              "name": "deadline",
              "type": "uint256"
            }
          ],
          "internalType": "struct FidMarketplaceV1.Offer",
          "name": "",
          "type": "tuple"
        }
      ],
      "stateMutability": "view",
      "type": "function"
    },
    {
      "inputs": [],
      "name": "idRegistry",
      "outputs": [
        {
          "internalType": "contract IIdRegistry",
          "name": "",
          "type": "address"
        }
      ],
      "stateMutability": "view",
      "type": "function"
    },
    {
      "inputs": [
        {
          "internalType": "bytes32",
          "name": "hash",
          "type": "bytes32"
        },
        {
          "internalType": "bytes",
          "name": "signature",
          "type": "bytes"
        }
      ],
      "name": "isValidSignature",
      "outputs": [
        {
          "internalType": "bytes4",
          "name": "magicValue",
          "type": "bytes4"
        }
      ],
      "stateMutability": "view",
      "type": "function"
    },
    {
      "inputs": [
        {
          "internalType": "address",
          "name": "owner",
          "type": "address"
        },
        {
          "internalType": "uint256",
          "name": "salt",
          "type": "uint256"
        },
        {
          "internalType": "bytes",
          "name": "ownerSignature",
          "type": "bytes"
        },
        {
          "internalType": "uint256",
          "name": "minFee",
          "type": "uint256"
        },
        {
          "internalType": "uint256",
          "name": "deadline",
          "type": "uint256"
        }
      ],
      "name": "list",
      "outputs": [
        {
          "internalType": "contract FidMarketplaceV1Proxy",
          "name": "ret",
          "type": "address"
        }
      ],
      "stateMutability": "nonpayable",
      "type": "function"
    },
    {
      "inputs": [
        {
          "internalType": "bytes",
          "name": "ownerSignature",
          "type": "bytes"
        },
        {
          "internalType": "uint256",
          "name": "minFee",
          "type": "uint256"
        },
        {
          "internalType": "uint256",
          "name": "deadline",
          "type": "uint256"
        }
      ],
      "name": "listWithoutProxy",
      "outputs": [],
      "stateMutability": "nonpayable",
      "type": "function"
    },
    {
      "inputs": [
        {
          "internalType": "uint256",
          "name": "",
          "type": "uint256"
        }
      ],
      "name": "listings",
      "outputs": [
        {
          "internalType": "uint256",
          "name": "minFee",
          "type": "uint256"
        },
        {
          "internalType": "bytes",
          "name": "ownerSignature",
          "type": "bytes"
        },
        {
          "internalType": "uint256",
          "name": "deadline",
          "type": "uint256"
        },
        {
          "internalType": "address",
          "name": "owner",
          "type": "address"
        }
      ],
      "stateMutability": "view",
      "type": "function"
    },
    {
      "inputs": [
        {
          "internalType": "uint256",
          "name": "fid",
          "type": "uint256"
        },
        {
          "internalType": "uint256",
          "name": "amount",
          "type": "uint256"
        },
        {
          "internalType": "uint256",
          "name": "deadline",
          "type": "uint256"
        },
        {
          "internalType": "bytes",
          "name": "signature",
          "type": "bytes"
        }
      ],
      "name": "offer",
      "outputs": [],
      "stateMutability": "nonpayable",
      "type": "function"
    },
    {
      "inputs": [
        {
          "internalType": "uint256",
          "name": "",
          "type": "uint256"
        },
        {
          "internalType": "address",
          "name": "",
          "type": "address"
        }
      ],
      "name": "offers",
      "outputs": [
        {
          "internalType": "uint256",
          "name": "amount",
          "type": "uint256"
        },
        {
          "internalType": "bytes",
          "name": "signature",
          "type": "bytes"
        },
        {
          "internalType": "uint256",
          "name": "deadline",
          "type": "uint256"
        }
      ],
      "stateMutability": "view",
      "type": "function"
    },
    {
      "inputs": [],
      "name": "owner",
      "outputs": [
        {
          "internalType": "address",
          "name": "",
          "type": "address"
        }
      ],
      "stateMutability": "view",
      "type": "function"
    },
    {
      "inputs": [],
      "name": "renounceOwnership",
      "outputs": [],
      "stateMutability": "nonpayable",
      "type": "function"
    },
    {
      "inputs": [
        {
          "internalType": "address",
          "name": "newOwner",
          "type": "address"
        }
      ],
      "name": "transferOwnership",
      "outputs": [],
      "stateMutability": "nonpayable",
      "type": "function"
    },
    {
      "inputs": [
        {
          "internalType": "uint256",
          "name": "fid",
          "type": "uint256"
        },
        {
          "internalType": "address",
          "name": "signer",
          "type": "address"
        },
        {
          "internalType": "address",
          "name": "to",
          "type": "address"
        },
        {
          "internalType": "uint256",
          "name": "deadline",
          "type": "uint256"
        },
        {
          "internalType": "bytes",
          "name": "sig",
          "type": "bytes"
        }
      ],
      "name": "verifyListSig",
      "outputs": [
        {
          "internalType": "bool",
          "name": "isValid",
          "type": "bool"
        }
      ],
      "stateMutability": "view",
      "type": "function"
    },
    {
      "inputs": [],
      "name": "weth",
      "outputs": [
        {
          "internalType": "contract IERC20",
          "name": "",
          "type": "address"
        }
      ],
      "stateMutability": "view",
      "type": "function"
    },
    {
      "inputs": [],
      "name": "withdraw",
      "outputs": [],
      "stateMutability": "nonpayable",
      "type": "function"
    },
    {
      "stateMutability": "payable",
      "type": "receive"
    }
  ],
  "bytecode": "0x60a06040523480156200001157600080fd5b50604051620043a4380380620043a48339810160408190526200003491620000db565b6200003f336200006e565b6001929092556001600160a01b03908116608052600280546001600160a01b031916919092161790556200011c565b600080546001600160a01b038381166001600160a01b0319831681178455604051919092169283917f8be0079c531659141344cd1fd0a4f28419497f9722a3daafe3b4186f6b6457e09190a35050565b80516001600160a01b0381168114620000d657600080fd5b919050565b600080600060608486031215620000f157600080fd5b835192506200010360208501620000be565b91506200011360408501620000be565b90509250925092565b60805161425e620001466000396000818161027b01528181610e860152610efb015261425e6000f3fe608060405260043610620001535760003560e01c80638da5cb5b11620000b9578063cb13cddb1162000078578063cb13cddb14620003ea578063d575fe64146200041e578063de74e57b1462000445578063ebdfbce5146200047c578063ef706adf14620004b2578063f2fde38b14620004d757600080fd5b80638da5cb5b146200032757806390c7c0ec1462000347578063a8d5fc50146200036c578063b8fd9e651462000391578063b9520ce414620003b657600080fd5b80633ccfd60b11620001125780633ccfd60b146200024f5780633fc8cef31462000267578063468a1235146200029d578063560a285214620002d3578063715018a614620002ea5780638cb84e18146200030257600080fd5b80630aa13b8c14620001605780631626ba7e146200019f57806320a57b4814620001de578063305a67a8146200020557806338c2bab3146200022a57600080fd5b366200015b57005b600080fd5b3480156200016d57600080fd5b5060025462000182906001600160a01b031681565b6040516001600160a01b0390911681526020015b60405180910390f35b348015620001ac57600080fd5b50620001c4620001be36600462001e10565b620004fc565b6040516001600160e01b0319909116815260200162000196565b348015620001eb57600080fd5b5062000203620001fd36600462001e78565b6200056f565b005b3480156200021257600080fd5b50620002036200022436600462001e96565b6200059b565b3480156200023757600080fd5b50620002036200024936600462001ef5565b62000626565b3480156200025c57600080fd5b5062000203620007dd565b3480156200027457600080fd5b50620001827f000000000000000000000000000000000000000000000000000000000000000081565b348015620002aa57600080fd5b50620002c2620002bc36600462001f4a565b62000818565b604051901515815260200162000196565b62000203620002e436600462001fca565b62000a3a565b348015620002f757600080fd5b506200020362000c46565b3480156200030f57600080fd5b50620001826200032136600462002031565b62000c5e565b3480156200033457600080fd5b506000546001600160a01b031662000182565b3480156200035457600080fd5b5062000203620003663660046200205e565b62000d01565b3480156200037957600080fd5b50620001826200038b366004620020cc565b62001081565b3480156200039e57600080fd5b5062000203620003b03660046200213e565b6200128f565b348015620003c357600080fd5b50620003db620003d536600462002184565b620013a8565b60405162000196919062002207565b348015620003f757600080fd5b50620002c26200040936600462001e78565b60056020526000908152604090205460ff1681565b3480156200042b57600080fd5b506200043660015481565b60405190815260200162000196565b3480156200045257600080fd5b506200046a6200046436600462001e96565b620014ad565b60405162000196949392919062002245565b3480156200048957600080fd5b50620004a16200049b36600462002184565b62001570565b604051620001969392919062002281565b348015620004bf57600080fd5b5062000203620004d136600462001e96565b6200162e565b348015620004e457600080fd5b5062000203620004f636600462001e78565b620016df565b6000806200051e620005166000546001600160a01b031690565b85856200175b565b3260009081526005602052604090205490915060ff1615156001148180620005435750805b156200055c5750630b135d3f60e11b9150620005699050565b5060009150620005699050565b92915050565b62000579620017c5565b600280546001600160a01b0319166001600160a01b0392909216919091179055565b6000818152600460205260409020600301546001600160a01b03163314620006185760405162461bcd60e51b815260206004820152602560248201527f4f6e6c7920746865206f776e65722063616e2063616e63656c20746865206c696044820152647374696e6760d81b60648201526084015b60405180910390fd5b620006238162001821565b50565b600254604051636ca7f41960e11b81523360048201526000916001600160a01b03169063d94fe83290602401602060405180830381865afa15801562000670573d6000803e3d6000fd5b505050506040513d601f19601f82011682018060405250810190620006969190620022ac565b9050620006a881333085898962000818565b620006ea5760405162461bcd60e51b8152602060048201526011602482015270496e76616c6964207369676e617475726560781b60448201526064016200060f565b604051806080016040528084815260200186868080601f0160208091040260200160405190810160405280939291908181526020018383808284376000920182905250938552505050602080830186905233604093840152848252600481529190208251815590820151600182019062000765908262002354565b506040828101516002830155606090920151600390910180546001600160a01b0319166001600160a01b039092169190911790558051848152602081018490523091339184917f723f73331eaee88eec7fc68ef60ab6ed15e4b90d0472b55eb92fa43910bab6dd910160405180910390a45050505050565b600080546040516001600160a01b03909116914780156108fc02929091818181858888f1935050505015801562000623573d6000803e3d6000fd5b60025460408051622fc9bd60e21b8152905160009283926001600160a01b0390911691634980f28891839162bf26f4916004808201926020929091908290030181865afa1580156200086e573d6000803e3d6000fd5b505050506040513d601f19601f82011682018060405250810190620008949190620022ac565b600254604051623f675f60e91b81526001600160a01b038c811660048301528d928c92911690637ecebe0090602401602060405180830381865afa158015620008e1573d6000803e3d6000fd5b505050506040513d601f19601f82011682018060405250810190620009079190620022ac565b6040805160208101959095528401929092526001600160a01b03166060830152608082015260a0810188905260c001604051602081830303815290604052805190602001206040518263ffffffff1660e01b81526004016200096b91815260200190565b602060405180830381865afa15801562000989573d6000803e3d6000fd5b505050506040513d601f19601f82011682018060405250810190620009af9190620022ac565b60025460405163032faac760e41b81529192506001600160a01b0316906332faac7090620009ea908a908c9086908a908a906004016200244a565b602060405180830381865afa15801562000a08573d6000803e3d6000fd5b505050506040513d601f19601f8201168201806040525081019062000a2e919062002485565b98975050505050505050565b60008481526004602052604090205462000a835760405162461bcd60e51b8152602060048201526009602482015268139bdd131a5cdd195960ba1b60448201526064016200060f565b60008481526004602052604090205462000a9d906200185e565b6000848152600460205260409020600381015460028201546001909201805462000b65936001600160a01b0390931692919062000ada90620022c6565b80601f016020809104026020016040519081016040528092919081815260200182805462000b0890620022c6565b801562000b595780601f1062000b2d5761010080835404028352916020019162000b59565b820191906000526020600020905b81548152906001019060200180831162000b3b57829003601f168201915b50505050508662001994565b600254604051635f22feb160e11b81526001600160a01b039091169063be45fd629062000b9b90869086908690600401620024a9565b600060405180830381600087803b15801562000bb657600080fd5b505af115801562000bcb573d6000803e3d6000fd5b5050505062000bda8462001821565b826001600160a01b0316336001600160a01b0316857f7895bd4ff6323b874827e7c09827afb49db435ec423c8487977702687b53fc493460405162000c2191815260200190565b60405180910390a45050336000908152600560205260409020805460ff191690555050565b62000c50620017c5565b62000c5c600062001a6b565b565b600254604080516001600160a01b038086166020830152309282019290925291166060820152600090819060800160408051601f19818403018152908290529150839062000cf890829062000cb66020820162001d03565b601f1982820381018352601f90910116604081905262000cdc91908690602001620024d2565b6040516020818303038152906040528051906020012062001abb565b95945050505050565b60008581526003602090815260408083206001600160a01b03881684529091529020805462000d695760405162461bcd60e51b81526020600482015260136024820152724e6f206f6666657220746f20617070726f766560681b60448201526064016200060f565b600254604051636ca7f41960e11b815233600482015287916001600160a01b03169063d94fe83290602401602060405180830381865afa15801562000db2573d6000803e3d6000fd5b505050506040513d601f19601f8201168201806040525081019062000dd89190620022ac565b1462000e335760405162461bcd60e51b8152602060048201526024808201527f4f6e6c7920746865206f776e65722063616e20617070726f766520746865206f604482015263333332b960e11b60648201526084016200060f565b60006064600154836000015462000e4b91906200251b565b62000e57919062002535565b6040516323b872dd60e01b81526001600160a01b038881166004830152306024830152604482018390529192507f0000000000000000000000000000000000000000000000000000000000000000909116906323b872dd906064016020604051808303816000875af115801562000ed2573d6000803e3d6000fd5b505050506040513d601f19601f8201168201806040525081019062000ef8919062002485565b507f00000000000000000000000000000000000000000000000000000000000000006001600160a01b03166323b872dd873384866000015462000f3c919062002558565b6040516001600160e01b031960e086901b1681526001600160a01b03938416600482015292909116602483015260448201526064016020604051808303816000875af115801562000f91573d6000803e3d6000fd5b505050506040513d601f19601f8201168201806040525081019062000fb7919062002485565b506002805490830154604051630b7b942160e11b81526001600160a01b03909216916316f728429162000ffd9133918b918b918b918b919060018c01906004016200256e565b600060405180830381600087803b1580156200101857600080fd5b505af11580156200102d573d6000803e3d6000fd5b505060008085556040519081526001600160a01b038916925089915033907f7ed5731d9f2375d2bfbb722591b0b1c4bedf36d9a09d575bef96069a13ea737f9060200160405180910390a450505050505050565b6000858162001091898362000c5e565b600254604051636ca7f41960e11b81526001600160a01b038c811660048301529293506000929091169063d94fe83290602401602060405180830381865afa158015620010e2573d6000803e3d6000fd5b505050506040513d601f19601f82011682018060405250810190620011089190620022ac565b90506200111a818b84888c8c62000818565b6200115c5760405162461bcd60e51b8152602060048201526011602482015270496e76616c6964207369676e617475726560781b60448201526064016200060f565b60025460405184918c9130916001600160a01b0316906200117d9062001d03565b6001600160a01b039384168152918316602083015290911660408201526060018190604051809103906000f5905080158015620011be573d6000803e3d6000fd5b5060405163722a5fc160e01b81529094506001600160a01b0385169063722a5fc190620011f6908b908b908a908c906004016200263e565b600060405180830381600087803b1580156200121157600080fd5b505af115801562001226573d6000803e3d6000fd5b50505050836001600160a01b03168a6001600160a01b0316827f723f73331eaee88eec7fc68ef60ab6ed15e4b90d0472b55eb92fa43910bab6dd89896040516200127a929190918252602082015260400190565b60405180910390a45050509695505050505050565b60008411620012e15760405162461bcd60e51b815260206004820181905260248201527f416d6f756e74206d7573742062652067726561746572207468616e207a65726f60448201526064016200060f565b604051806060016040528085815260200183838080601f0160208091040260200160405190810160405280939291908181526020018383808284376000920182905250938552505050602091820186905287815260038252604080822033835283529020825181559082015160018201906200135e908262002354565b506040918201516002919091015551848152339086907fbdf1e76c2ba2a5c85b93bf78678a4a3b06d63b18422612dac8d7d5249ed467149060200160405180910390a35050505050565b620013cd60405180606001604052806000815260200160608152602001600081525090565b60008381526003602090815260408083206001600160a01b03861684528252918290208251606081019093528054835260018101805491928401916200141390620022c6565b80601f01602080910402602001604051908101604052809291908181526020018280546200144190620022c6565b8015620014925780601f10620014665761010080835404028352916020019162001492565b820191906000526020600020905b8154815290600101906020018083116200147457829003601f168201915b50505050508152602001600282015481525050905092915050565b60046020526000908152604090208054600182018054919291620014d190620022c6565b80601f0160208091040260200160405190810160405280929190818152602001828054620014ff90620022c6565b8015620015505780601f10620015245761010080835404028352916020019162001550565b820191906000526020600020905b8154815290600101906020018083116200153257829003601f168201915b5050505060028301546003909301549192916001600160a01b0316905084565b6003602090815260009283526040808420909152908252902080546001820180549192916200159f90620022c6565b80601f0160208091040260200160405190810160405280929190818152602001828054620015cd90620022c6565b80156200161e5780601f10620015f2576101008083540402835291602001916200161e565b820191906000526020600020905b8154815290600101906020018083116200160057829003601f168201915b5050505050908060020154905083565b6000818152600360209081526040808320338452909152902054620016965760405162461bcd60e51b815260206004820181905260248201527f416d6f756e74206d7573742062652067726561746572207468616e207a65726f60448201526064016200060f565b600081815260036020908152604080832033808552925280832083905551909183917f9a4dfa8787b349e9b45b60504f991c5c9f9cda8dadabdc8e4a3f4cb8608220a39190a350565b620016e9620017c5565b6001600160a01b038116620017505760405162461bcd60e51b815260206004820152602660248201527f4f776e61626c653a206e6577206f776e657220697320746865207a65726f206160448201526564647265737360d01b60648201526084016200060f565b620006238162001a6b565b60008060006200176c858562001ad1565b9092509050600081600481111562001788576200178862002667565b148015620017a75750856001600160a01b0316826001600160a01b0316145b80620017bb5750620017bb86868662001b1a565b9695505050505050565b6000546001600160a01b0316331462000c5c5760405162461bcd60e51b815260206004820181905260248201527f4f776e61626c653a2063616c6c6572206973206e6f7420746865206f776e657260448201526064016200060f565b60008181526004602052604081208181559062001842600183018262001d11565b506000600282015560030180546001600160a01b031916905550565b80341015620018b05760405162461bcd60e51b815260206004820152601760248201527f496e73756666696369656e742066756e64732073656e7400000000000000000060448201526064016200060f565b336000908152600560205260408120805460ff1916600190811790915554606490620018dd90346200251b565b620018e9919062002535565b9050620018fe6000546001600160a01b031690565b6001600160a01b03166108fc62001916838562002558565b6040518115909202916000818181858888f193505050501580156200193f573d6000803e3d6000fd5b5060006200194e833462002558565b11156200199057336108fc62001965843462002558565b6040518115909202916000818181858888f193505050501580156200198e573d6000803e3d6000fd5b505b5050565b600254604051630b7b942160e11b81526001600160a01b03909116906316f7284290620019d0908790309088908890829082906004016200267d565b600060405180830381600087803b158015620019eb57600080fd5b505af115801562001a00573d6000803e3d6000fd5b5050600254604051633c7c2c8960e21b81526001600160a01b038581166004830152909116925063f1f0b2249150602401600060405180830381600087803b15801562001a4c57600080fd5b505af115801562001a61573d6000803e3d6000fd5b5050505050505050565b600080546001600160a01b038381166001600160a01b0319831681178455604051919092169283917f8be0079c531659141344cd1fd0a4f28419497f9722a3daafe3b4186f6b6457e09190a35050565b600062001aca83833062001c10565b9392505050565b600080825160410362001b0b5760208301516040840151606085015160001a62001afe8782858562001c3a565b9450945050505062001b13565b506000905060025b9250929050565b6000806000856001600160a01b0316631626ba7e60e01b868660405160240162001b46929190620026d9565b60408051601f198184030181529181526020820180516001600160e01b03166001600160e01b031990941693909317909252905162001b869190620026fc565b600060405180830381855afa9150503d806000811462001bc3576040519150601f19603f3d011682016040523d82523d6000602084013e62001bc8565b606091505b509150915081801562001bdd57506020815110155b8015620017bb57508051630b135d3f60e11b9062001c059083016020908101908401620022ac565b149695505050505050565b6000604051836040820152846020820152828152600b8101905060ff815360559020949350505050565b6000807f7fffffffffffffffffffffffffffffff5d576e7357a4501ddfe92f46681b20a083111562001c73575060009050600362001cfa565b6040805160008082526020820180845289905260ff881692820192909252606081018690526080810185905260019060a0016020604051602081039080840390855afa15801562001cc8573d6000803e3d6000fd5b5050604051601f1901519150506001600160a01b03811662001cf35760006001925092505062001cfa565b9150600090505b94509492505050565b611b0e806200271b83390190565b50805462001d1f90620022c6565b6000825580601f1062001d30575050565b601f0160209004906000526020600020908101906200062391905b8082111562001d61576000815560010162001d4b565b5090565b634e487b7160e01b600052604160045260246000fd5b600082601f83011262001d8d57600080fd5b813567ffffffffffffffff8082111562001dab5762001dab62001d65565b604051601f8301601f19908116603f0116810190828211818310171562001dd65762001dd662001d65565b8160405283815286602085880101111562001df057600080fd5b836020870160208301376000602085830101528094505050505092915050565b6000806040838503121562001e2457600080fd5b82359150602083013567ffffffffffffffff81111562001e4357600080fd5b62001e518582860162001d7b565b9150509250929050565b80356001600160a01b038116811462001e7357600080fd5b919050565b60006020828403121562001e8b57600080fd5b62001aca8262001e5b565b60006020828403121562001ea957600080fd5b5035919050565b60008083601f84011262001ec357600080fd5b50813567ffffffffffffffff81111562001edc57600080fd5b60208301915083602082850101111562001b1357600080fd5b6000806000806060858703121562001f0c57600080fd5b843567ffffffffffffffff81111562001f2457600080fd5b62001f328782880162001eb0565b90989097506020870135966040013595509350505050565b60008060008060008060a0878903121562001f6457600080fd5b8635955062001f766020880162001e5b565b945062001f866040880162001e5b565b935060608701359250608087013567ffffffffffffffff81111562001faa57600080fd5b62001fb889828a0162001eb0565b979a9699509497509295939492505050565b6000806000806080858703121562001fe157600080fd5b8435935062001ff36020860162001e5b565b925060408501359150606085013567ffffffffffffffff8111156200201757600080fd5b620020258782880162001d7b565b91505092959194509250565b600080604083850312156200204557600080fd5b620020508362001e5b565b946020939093013593505050565b6000806000806000608086880312156200207757600080fd5b85359450620020896020870162001e5b565b935060408601359250606086013567ffffffffffffffff811115620020ad57600080fd5b620020bb8882890162001eb0565b969995985093965092949392505050565b60008060008060008060a08789031215620020e657600080fd5b620020f18762001e5b565b955060208701359450604087013567ffffffffffffffff8111156200211557600080fd5b6200212389828a0162001eb0565b979a9699509760608101359660809091013595509350505050565b6000806000806000608086880312156200215757600080fd5b853594506020860135935060408601359250606086013567ffffffffffffffff811115620020ad57600080fd5b600080604083850312156200219857600080fd5b82359150620021aa6020840162001e5b565b90509250929050565b60005b83811015620021d0578181015183820152602001620021b6565b50506000910152565b60008151808452620021f3816020860160208601620021b3565b601f01601f19169290920160200192915050565b602081528151602082015260006020830151606060408401526200222f6080840182620021d9565b9050604084015160608401528091505092915050565b848152608060208201526000620022606080830186620021d9565b6040830194909452506001600160a01b039190911660609091015292915050565b8381526060602082015260006200229c6060830185620021d9565b9050826040830152949350505050565b600060208284031215620022bf57600080fd5b5051919050565b600181811c90821680620022db57607f821691505b602082108103620022fc57634e487b7160e01b600052602260045260246000fd5b50919050565b601f8211156200198e57600081815260208120601f850160051c810160208610156200232b5750805b601f850160051c820191505b818110156200234c5782815560010162002337565b505050505050565b815167ffffffffffffffff81111562002371576200237162001d65565b6200238981620023828454620022c6565b8462002302565b602080601f831160018114620023c15760008415620023a85750858301515b600019600386901b1c1916600185901b1785556200234c565b600085815260208120601f198616915b82811015620023f257888601518255948401946001909101908401620023d1565b5085821015620024115787850151600019600388901b60f8161c191681555b5050505050600190811b01905550565b81835281816020850137506000828201602090810191909152601f909101601f19169091010190565b60018060a01b03861681528460208201528360408201526080606082015260006200247a60808301848662002421565b979650505050505050565b6000602082840312156200249857600080fd5b8151801515811462001aca57600080fd5b60018060a01b038416815282602082015260606040820152600062000cf86060830184620021d9565b60008351620024e6818460208801620021b3565b835190830190620024fc818360208801620021b3565b01949350505050565b634e487b7160e01b600052601160045260246000fd5b808202811582820484141762000569576200056962002505565b6000826200255357634e487b7160e01b600052601260045260246000fd5b500490565b8181038181111562000569576200056962002505565b600060018060a01b03808a1683526020818a168185015288604085015260c06060850152620025a260c08501888a62002421565b915085608085015283820360a085015260008554620025c181620022c6565b80855260018281168015620025df5760018114620025fa576200262a565b60ff1984168787015282151560051b8701860194506200262a565b896000528560002060005b848110156200262257815489820189015290830190870162002605565b880187019550505b50929e9d5050505050505050505050505050565b6060815260006200265460608301868862002421565b6020830194909452506040015292915050565b634e487b7160e01b600052602160045260246000fd5b6001600160a01b038781168252861660208201526040810185905260c060608201819052600090620026b290830186620021d9565b84608084015282810360a0840152620026cc8185620021d9565b9998505050505050505050565b828152604060208201526000620026f46040830184620021d9565b949350505050565b6000825162002710818460208701620021b3565b919091019291505056fe60e0604052600560a0526004805460ff191690553480156200002057600080fd5b5060405162001b0e38038062001b0e833981016040819052620000439162000269565b6200004e3362000072565b6200005983620000c2565b6001600160a01b039182166080521660c05250620002b3565b600080546001600160a01b038381166001600160a01b0319831681178455604051919092169283917f8be0079c531659141344cd1fd0a4f28419497f9722a3daafe3b4186f6b6457e09190a35050565b620000cc62000145565b6001600160a01b038116620001375760405162461bcd60e51b815260206004820152602660248201527f4f776e61626c653a206e6577206f776e657220697320746865207a65726f206160448201526564647265737360d01b60648201526084015b60405180910390fd5b620001428162000072565b50565b6000546001600160a01b03163314620001f0576001546005541015620001ae5760405162461bcd60e51b815260206004820152601760248201527f496e73756666696369656e742066756e64732073656e7400000000000000000060448201526064016200012e565b60045460ff16620001ee5760405162461bcd60e51b8152602060048201526009602482015268139bdd131a5cdd195960ba1b60448201526064016200012e565b565b6000546001600160a01b03163314620001ee5760405162461bcd60e51b815260206004820181905260248201527f4f776e61626c653a2063616c6c6572206973206e6f7420746865206f776e657260448201526064016200012e565b80516001600160a01b03811681146200026457600080fd5b919050565b6000806000606084860312156200027f57600080fd5b6200028a846200024c565b92506200029a602085016200024c565b9150620002aa604085016200024c565b90509250925092565b60805160a05160c0516117d7620003376000396000818161012001528181610458015281816104d40152818161059601528181610827015281816108aa01528181610c1d01528181610c990152610d570152600081816103140152610ada0152600081816102e00152818161061d015281816106ee0152610b1e01526117d76000f3fe6080604052600436106101095760003560e01c8063722a5fc111610095578063a4b42b3311610064578063a4b42b33146102ac578063c45a0155146102ce578063d575fe6414610302578063d910b05a14610336578063f2fde38b1461036057600080fd5b8063722a5fc11461023b57806381568eb81461025b5780638cdf6bff1461026e5780638da5cb5b1461028e57600080fd5b806329dcb0cf116100dc57806329dcb0cf146101d15780633257b4f3146101e75780633ccfd60b146101fc5780635cacd0d214610211578063715018a61461022657600080fd5b80630aa13b8c1461010e57806314d627d21461015f5780631626ba7e1461017457806324ec7590146101ad575b600080fd5b34801561011a57600080fd5b506101427f000000000000000000000000000000000000000000000000000000000000000081565b6040516001600160a01b0390911681526020015b60405180910390f35b61017261016d36600461121c565b610380565b005b34801561018057600080fd5b5061019461018f36600461126a565b6103e4565b6040516001600160e01b03199091168152602001610156565b3480156101b957600080fd5b506101c360015481565b604051908152602001610156565b3480156101dd57600080fd5b506101c360035481565b3480156101f357600080fd5b506101c3610440565b34801561020857600080fd5b506101726105cd565b34801561021d57600080fd5b50610172610612565b34801561023257600080fd5b506101726106d1565b34801561024757600080fd5b506101726102563660046112b1565b6106e3565b6101726102693660046112ff565b6107b8565b34801561027a57600080fd5b5061017261028936600461137d565b6108a0565b34801561029a57600080fd5b506000546001600160a01b0316610142565b3480156102b857600080fd5b506102c161093f565b6040516101569190611412565b3480156102da57600080fd5b506101427f000000000000000000000000000000000000000000000000000000000000000081565b34801561030e57600080fd5b506101c37f000000000000000000000000000000000000000000000000000000000000000081565b34801561034257600080fd5b506004546103509060ff1681565b6040519015158152602001610156565b34801561036c57600080fd5b5061017261037b36600461142c565b6109cd565b610388610a43565b6103928282610c08565b303361039c610440565b6040513481527f7895bd4ff6323b874827e7c09827afb49db435ec423c8487977702687b53fc499060200160405180910390a46103d8816109cd565b6103e0610d86565b5050565b6000806104036103fc6000546001600160a01b031690565b8585610dbf565b600154600554919250111581806104175750805b1561042e5750630b135d3f60e11b915061043a9050565b506000915061043a9050565b92915050565b604051636ca7f41960e11b81523060048201526000907f00000000000000000000000000000000000000000000000000000000000000006001600160a01b03169063d94fe83290602401602060405180830381865afa1580156104a7573d6000803e3d6000fd5b505050506040513d601f19601f820116820180604052508101906104cb9190611447565b600003610581577f00000000000000000000000000000000000000000000000000000000000000006001600160a01b031663d94fe8326105136000546001600160a01b031690565b6040516001600160e01b031960e084901b1681526001600160a01b0390911660048201526024015b602060405180830381865afa158015610558573d6000803e3d6000fd5b505050506040513d601f19601f8201168201806040525081019061057c9190611447565b905090565b604051636ca7f41960e11b81523060048201527f00000000000000000000000000000000000000000000000000000000000000006001600160a01b03169063d94fe8329060240161053b565b6105d5610e20565b600080546040516001600160a01b03909116914780156108fc02929091818181858888f1935050505015801561060f573d6000803e3d6000fd5b50565b336001600160a01b037f000000000000000000000000000000000000000000000000000000000000000016148061065357506000546001600160a01b031633145b6106785760405162461bcd60e51b815260040161066f90611460565b60405180910390fd5b33610681610440565b7f9e3387d71092fe1d8940a8bd35f19f9ac4261afe1a21988b5cc6d2c67772dfc06001546003546040516106bf929190918252602082015260400190565b60405180910390a36106cf610d86565b565b6106d9610e20565b6106cf6000610f18565b336001600160a01b037f000000000000000000000000000000000000000000000000000000000000000016148061072457506000546001600160a01b031633145b6107405760405162461bcd60e51b815260040161066f90611460565b600261074c8482611531565b50600382905560018181556004805460ff191690911790553361076d610440565b7f98868c46d49b200d82c273c9f28d73265826ca6567690262736450563dfff64c6001546003546040516107ab929190918252602082015260400190565b60405180910390a3505050565b6107c0610a43565b6107ca8484610c08565b6001600160a01b038316336107dd610440565b6040513481527f7895bd4ff6323b874827e7c09827afb49db435ec423c8487977702687b53fc499060200160405180910390a4604051635f22feb160e11b81526001600160a01b037f0000000000000000000000000000000000000000000000000000000000000000169063be45fd6290610860908690869086906004016115f1565b600060405180830381600087803b15801561087a57600080fd5b505af115801561088e573d6000803e3d6000fd5b5050505061089a610d86565b50505050565b6108a8610e20565b7f00000000000000000000000000000000000000000000000000000000000000006001600160a01b031663be45fd626108e96000546001600160a01b031690565b83856040518463ffffffff1660e01b8152600401610909939291906115f1565b600060405180830381600087803b15801561092357600080fd5b505af1158015610937573d6000803e3d6000fd5b505050505050565b6002805461094c906114ac565b80601f0160208091040260200160405190810160405280929190818152602001828054610978906114ac565b80156109c55780601f1061099a576101008083540402835291602001916109c5565b820191906000526020600020905b8154815290600101906020018083116109a857829003601f168201915b505050505081565b6109d5610e20565b6001600160a01b038116610a3a5760405162461bcd60e51b815260206004820152602660248201527f4f776e61626c653a206e6577206f776e657220697320746865207a65726f206160448201526564647265737360d01b606482015260840161066f565b61060f81610f18565b600154341015610a8f5760405162461bcd60e51b8152602060048201526017602482015276125b9cdd59999a58da595b9d08199d5b991cc81cd95b9d604a1b604482015260640161066f565b60045460ff16610acd5760405162461bcd60e51b8152602060048201526009602482015268139bdd131a5cdd195960ba1b604482015260640161066f565b34600581905550600060647f000000000000000000000000000000000000000000000000000000000000000034610b049190611637565b610b0e919061164e565b6040519091506001600160a01b037f0000000000000000000000000000000000000000000000000000000000000000169082156108fc029083906000818181858888f19350505050158015610b67573d6000803e3d6000fd5b506000546001600160a01b03166001600160a01b03166108fc82600154610b8e9190611670565b6040518115909202916000818181858888f19350505050158015610bb6573d6000803e3d6000fd5b50600060015434610bc79190611670565b111561060f5760015433906108fc90610be09034611670565b6040518115909202916000818181858888f193505050501580156103e0573d6000803e3d6000fd5b604051636ca7f41960e11b81523060048201527f00000000000000000000000000000000000000000000000000000000000000006001600160a01b03169063d94fe83290602401602060405180830381865afa158015610c6c573d6000803e3d6000fd5b505050506040513d601f19601f82011682018060405250810190610c909190611447565b600003610d38577f00000000000000000000000000000000000000000000000000000000000000006001600160a01b03166316f72842610cd86000546001600160a01b031690565b6003546040516001600160e01b031960e085901b168152610d059291309160029082908a90600401611683565b600060405180830381600087803b158015610d1f57600080fd5b505af1158015610d33573d6000803e3d6000fd5b505050505b604051633c7c2c8960e21b81526001600160a01b0382811660048301527f0000000000000000000000000000000000000000000000000000000000000000169063f1f0b22490602401610909565b600060058190556040805160208101909152908152600290610da89082611531565b50600060038190556001556004805460ff19169055565b6000806000610dce8585610f68565b90925090506000816004811115610de757610de761174e565b148015610e055750856001600160a01b0316826001600160a01b0316145b80610e165750610e16868686610fad565b9695505050505050565b6000546001600160a01b03163314610ebe576001546005541015610e805760405162461bcd60e51b8152602060048201526017602482015276125b9cdd59999a58da595b9d08199d5b991cc81cd95b9d604a1b604482015260640161066f565b60045460ff166106cf5760405162461bcd60e51b8152602060048201526009602482015268139bdd131a5cdd195960ba1b604482015260640161066f565b6000546001600160a01b031633146106cf5760405162461bcd60e51b815260206004820181905260248201527f4f776e61626c653a2063616c6c6572206973206e6f7420746865206f776e6572604482015260640161066f565b600080546001600160a01b038381166001600160a01b0319831681178455604051919092169283917f8be0079c531659141344cd1fd0a4f28419497f9722a3daafe3b4186f6b6457e09190a35050565b6000808251604103610f9e5760208301516040840151606085015160001a610f9287828585611099565b94509450505050610fa6565b506000905060025b9250929050565b6000806000856001600160a01b0316631626ba7e60e01b8686604051602401610fd7929190611764565b60408051601f198184030181529181526020820180516001600160e01b03166001600160e01b03199094169390931790925290516110159190611785565b600060405180830381855afa9150503d8060008114611050576040519150601f19603f3d011682016040523d82523d6000602084013e611055565b606091505b509150915081801561106957506020815110155b8015610e1657508051630b135d3f60e11b9061108e9083016020908101908401611447565b149695505050505050565b6000807f7fffffffffffffffffffffffffffffff5d576e7357a4501ddfe92f46681b20a08311156110d05750600090506003611154565b6040805160008082526020820180845289905260ff881692820192909252606081018690526080810185905260019060a0016020604051602081039080840390855afa158015611124573d6000803e3d6000fd5b5050604051601f1901519150506001600160a01b03811661114d57600060019250925050611154565b9150600090505b94509492505050565b634e487b7160e01b600052604160045260246000fd5b600082601f83011261118457600080fd5b813567ffffffffffffffff8082111561119f5761119f61115d565b604051601f8301601f19908116603f011681019082821181831017156111c7576111c761115d565b816040528381528660208588010111156111e057600080fd5b836020870160208301376000602085830101528094505050505092915050565b80356001600160a01b038116811461121757600080fd5b919050565b6000806040838503121561122f57600080fd5b823567ffffffffffffffff81111561124657600080fd5b61125285828601611173565b92505061126160208401611200565b90509250929050565b6000806040838503121561127d57600080fd5b82359150602083013567ffffffffffffffff81111561129b57600080fd5b6112a785828601611173565b9150509250929050565b6000806000606084860312156112c657600080fd5b833567ffffffffffffffff8111156112dd57600080fd5b6112e986828701611173565b9660208601359650604090950135949350505050565b6000806000806080858703121561131557600080fd5b843567ffffffffffffffff8082111561132d57600080fd5b61133988838901611173565b955061134760208801611200565b945060408701359350606087013591508082111561136457600080fd5b5061137187828801611173565b91505092959194509250565b6000806040838503121561139057600080fd5b823567ffffffffffffffff8111156113a757600080fd5b6113b385828601611173565b95602094909401359450505050565b60005b838110156113dd5781810151838201526020016113c5565b50506000910152565b600081518084526113fe8160208601602086016113c2565b601f01601f19169290920160200192915050565b60208152600061142560208301846113e6565b9392505050565b60006020828403121561143e57600080fd5b61142582611200565b60006020828403121561145957600080fd5b5051919050565b6020808252602c908201527f4f6e6c7920666163746f7279206f72206f776e65722063616e2063616c6c207460408201526b3434b990333ab731ba34b7b760a11b606082015260800190565b600181811c908216806114c057607f821691505b6020821081036114e057634e487b7160e01b600052602260045260246000fd5b50919050565b601f82111561152c57600081815260208120601f850160051c8101602086101561150d5750805b601f850160051c820191505b8181101561093757828155600101611519565b505050565b815167ffffffffffffffff81111561154b5761154b61115d565b61155f8161155984546114ac565b846114e6565b602080601f831160018114611594576000841561157c5750858301515b600019600386901b1c1916600185901b178555610937565b600085815260208120601f198616915b828110156115c3578886015182559484019460019091019084016115a4565b50858210156115e15787850151600019600388901b60f8161c191681555b5050505050600190811b01905550565b60018060a01b038416815282602082015260606040820152600061161860608301846113e6565b95945050505050565b634e487b7160e01b600052601160045260246000fd5b808202811582820484141761043a5761043a611621565b60008261166b57634e487b7160e01b600052601260045260246000fd5b500490565b8181038181111561043a5761043a611621565b6001600160a01b03878116825286166020808301919091526040820186905260c06060830152845460009182916116b9816114ac565b8060c087015260e06001808416600081146116db57600181146116f557611723565b60ff1985168984015283151560051b890183019650611723565b8b6000528560002060005b8581101561171b5781548b8201860152908301908701611700565b8a0184019750505b50505050505084608084015282810360a084015261174181856113e6565b9998505050505050505050565b634e487b7160e01b600052602160045260246000fd5b82815260406020820152600061177d60408301846113e6565b949350505050565b600082516117978184602087016113c2565b919091019291505056fea26469706673582212208191e28961b65fbddce78cf09349e5eae36dd9581879597cc9fe64a06613038164736f6c63430008150033a26469706673582212201179856750651210b2e1772307e700c7099264a07c60da932b04af8787f4745d64736f6c63430008150033",
  "linkReferences": {},
  "deployedLinkReferences": {}
}