{
  "_format": "hh-sol-artifact-1",
  "contractName": "FidMarketplaceV1",
  "sourceName": "contracts/FidMarketplace.sol",
  "abi": [
    {
      "inputs": [
        {
          "internalType": "uint256",
          "name": "_commissionPercentage",
          "type": "uint256"
        },
        {
          "internalType": "address",
          "name": "_wethAddress",
          "type": "address"
        },
        {
          "internalType": "address",
          "name": "_idRegistry",
          "type": "address"
        }
      ],
      "stateMutability": "nonpayable",
      "type": "constructor"
    },
    {
      "anonymous": false,
      "inputs": [
        {
          "indexed": true,
          "internalType": "uint256",
          "name": "fid",
          "type": "uint256"
        },
        {
          "indexed": true,
          "internalType": "address",
          "name": "owner",
          "type": "address"
        },
        {
          "indexed": true,
          "internalType": "address",
          "name": "proxyContract",
          "type": "address"
        },
        {
          "indexed": false,
          "internalType": "uint256",
          "name": "amount",
          "type": "uint256"
        },
        {
          "indexed": false,
          "internalType": "uint256",
          "name": "deadline",
          "type": "uint256"
        }
      ],
      "name": "Listed",
      "type": "event"
    },
    {
      "anonymous": false,
      "inputs": [
        {
          "indexed": true,
          "internalType": "address",
          "name": "owner",
          "type": "address"
        },
        {
          "indexed": true,
          "internalType": "uint256",
          "name": "fid",
          "type": "uint256"
        },
        {
          "indexed": true,
          "internalType": "address",
          "name": "buyer",
          "type": "address"
        },
        {
          "indexed": false,
          "internalType": "uint256",
          "name": "amount",
          "type": "uint256"
        }
      ],
      "name": "OfferApproved",
      "type": "event"
    },
    {
      "anonymous": false,
      "inputs": [
        {
          "indexed": true,
          "internalType": "uint256",
          "name": "fid",
          "type": "uint256"
        },
        {
          "indexed": true,
          "internalType": "address",
          "name": "buyer",
          "type": "address"
        }
      ],
      "name": "OfferCanceled",
      "type": "event"
    },
    {
      "anonymous": false,
      "inputs": [
        {
          "indexed": true,
          "internalType": "uint256",
          "name": "fid",
          "type": "uint256"
        },
        {
          "indexed": true,
          "internalType": "address",
          "name": "buyer",
          "type": "address"
        },
        {
          "indexed": false,
          "internalType": "uint256",
          "name": "amount",
          "type": "uint256"
        }
      ],
      "name": "OfferMade",
      "type": "event"
    },
    {
      "anonymous": false,
      "inputs": [
        {
          "indexed": true,
          "internalType": "address",
          "name": "previousOwner",
          "type": "address"
        },
        {
          "indexed": true,
          "internalType": "address",
          "name": "newOwner",
          "type": "address"
        }
      ],
      "name": "OwnershipTransferred",
      "type": "event"
    },
    {
      "inputs": [
        {
          "internalType": "uint256",
          "name": "fid",
          "type": "uint256"
        },
        {
          "internalType": "address",
          "name": "buyer",
          "type": "address"
        },
        {
          "internalType": "uint256",
          "name": "deadline",
          "type": "uint256"
        },
        {
          "internalType": "bytes",
          "name": "ownerSig",
          "type": "bytes"
        }
      ],
      "name": "approveOffer",
      "outputs": [],
      "stateMutability": "nonpayable",
      "type": "function"
    },
    {
      "inputs": [
        {
          "internalType": "uint256",
          "name": "fid",
          "type": "uint256"
        }
      ],
      "name": "cancelOffer",
      "outputs": [],
      "stateMutability": "nonpayable",
      "type": "function"
    },
    {
      "inputs": [
        {
          "internalType": "address",
          "name": "_idRegistry",
          "type": "address"
        }
      ],
      "name": "changeIdRegistry",
      "outputs": [],
      "stateMutability": "nonpayable",
      "type": "function"
    },
    {
      "inputs": [],
      "name": "commissionPercentage",
      "outputs": [
        {
          "internalType": "uint256",
          "name": "",
          "type": "uint256"
        }
      ],
      "stateMutability": "view",
      "type": "function"
    },
    {
      "inputs": [
        {
          "internalType": "address",
          "name": "owner",
          "type": "address"
        },
        {
          "internalType": "uint256",
          "name": "salt",
          "type": "uint256"
        }
      ],
      "name": "getAddress",
      "outputs": [
        {
          "internalType": "address",
          "name": "",
          "type": "address"
        }
      ],
      "stateMutability": "view",
      "type": "function"
    },
    {
      "inputs": [
        {
          "internalType": "uint256",
          "name": "fid",
          "type": "uint256"
        },
        {
          "internalType": "address",
          "name": "buyer",
          "type": "address"
        }
      ],
      "name": "getOffer",
      "outputs": [
        {
          "components": [
            {
              "internalType": "uint256",
              "name": "amount",
              "type": "uint256"
            },
            {
              "internalType": "bytes",
              "name": "signature",
              "type": "bytes"
            },
            {
              "internalType": "uint256",
              "name": "deadline",
              "type": "uint256"
            }
          ],
          "internalType": "struct FidMarketplaceV1.Offer",
          "name": "",
          "type": "tuple"
        }
      ],
      "stateMutability": "view",
      "type": "function"
    },
    {
      "inputs": [],
      "name": "idRegistry",
      "outputs": [
        {
          "internalType": "contract IIdRegistry",
          "name": "",
          "type": "address"
        }
      ],
      "stateMutability": "view",
      "type": "function"
    },
    {
      "inputs": [
        {
          "internalType": "address",
          "name": "owner",
          "type": "address"
        },
        {
          "internalType": "uint256",
          "name": "salt",
          "type": "uint256"
        },
        {
          "internalType": "bytes",
          "name": "ownerSignature",
          "type": "bytes"
        },
        {
          "internalType": "uint256",
          "name": "minFee",
          "type": "uint256"
        },
        {
          "internalType": "uint256",
          "name": "deadline",
          "type": "uint256"
        }
      ],
      "name": "list",
      "outputs": [
        {
          "internalType": "contract FidMarketplaceV1Proxy",
          "name": "ret",
          "type": "address"
        }
      ],
      "stateMutability": "nonpayable",
      "type": "function"
    },
    {
      "inputs": [
        {
          "internalType": "uint256",
          "name": "fid",
          "type": "uint256"
        },
        {
          "internalType": "uint256",
          "name": "amount",
          "type": "uint256"
        },
        {
          "internalType": "uint256",
          "name": "deadline",
          "type": "uint256"
        },
        {
          "internalType": "bytes",
          "name": "signature",
          "type": "bytes"
        }
      ],
      "name": "offer",
      "outputs": [],
      "stateMutability": "nonpayable",
      "type": "function"
    },
    {
      "inputs": [
        {
          "internalType": "uint256",
          "name": "",
          "type": "uint256"
        },
        {
          "internalType": "address",
          "name": "",
          "type": "address"
        }
      ],
      "name": "offers",
      "outputs": [
        {
          "internalType": "uint256",
          "name": "amount",
          "type": "uint256"
        },
        {
          "internalType": "bytes",
          "name": "signature",
          "type": "bytes"
        },
        {
          "internalType": "uint256",
          "name": "deadline",
          "type": "uint256"
        }
      ],
      "stateMutability": "view",
      "type": "function"
    },
    {
      "inputs": [],
      "name": "owner",
      "outputs": [
        {
          "internalType": "address",
          "name": "",
          "type": "address"
        }
      ],
      "stateMutability": "view",
      "type": "function"
    },
    {
      "inputs": [],
      "name": "renounceOwnership",
      "outputs": [],
      "stateMutability": "nonpayable",
      "type": "function"
    },
    {
      "inputs": [
        {
          "internalType": "address",
          "name": "newOwner",
          "type": "address"
        }
      ],
      "name": "transferOwnership",
      "outputs": [],
      "stateMutability": "nonpayable",
      "type": "function"
    },
    {
      "inputs": [
        {
          "internalType": "uint256",
          "name": "fid",
          "type": "uint256"
        },
        {
          "internalType": "address",
          "name": "signer",
          "type": "address"
        },
        {
          "internalType": "address",
          "name": "to",
          "type": "address"
        },
        {
          "internalType": "uint256",
          "name": "deadline",
          "type": "uint256"
        },
        {
          "internalType": "bytes",
          "name": "sig",
          "type": "bytes"
        }
      ],
      "name": "verifyListSig",
      "outputs": [
        {
          "internalType": "bool",
          "name": "isValid",
          "type": "bool"
        }
      ],
      "stateMutability": "view",
      "type": "function"
    },
    {
      "inputs": [],
      "name": "weth",
      "outputs": [
        {
          "internalType": "contract IERC20",
          "name": "",
          "type": "address"
        }
      ],
      "stateMutability": "view",
      "type": "function"
    },
    {
      "inputs": [],
      "name": "withdraw",
      "outputs": [],
      "stateMutability": "nonpayable",
      "type": "function"
    },
    {
      "stateMutability": "payable",
      "type": "receive"
    }
  ],
  "bytecode": "0x60a06040523480156200001157600080fd5b50604051620057883803806200578883398181016040528101906200003791906200024d565b620000576200004b620000dc60201b60201c565b620000e460201b60201c565b826001819055508173ffffffffffffffffffffffffffffffffffffffff1660808173ffffffffffffffffffffffffffffffffffffffff168152505080600260006101000a81548173ffffffffffffffffffffffffffffffffffffffff021916908373ffffffffffffffffffffffffffffffffffffffff160217905550505050620002a9565b600033905090565b60008060009054906101000a900473ffffffffffffffffffffffffffffffffffffffff169050816000806101000a81548173ffffffffffffffffffffffffffffffffffffffff021916908373ffffffffffffffffffffffffffffffffffffffff1602179055508173ffffffffffffffffffffffffffffffffffffffff168173ffffffffffffffffffffffffffffffffffffffff167f8be0079c531659141344cd1fd0a4f28419497f9722a3daafe3b4186f6b6457e060405160405180910390a35050565b600080fd5b6000819050919050565b620001c281620001ad565b8114620001ce57600080fd5b50565b600081519050620001e281620001b7565b92915050565b600073ffffffffffffffffffffffffffffffffffffffff82169050919050565b60006200021582620001e8565b9050919050565b620002278162000208565b81146200023357600080fd5b50565b60008151905062000247816200021c565b92915050565b600080600060608486031215620002695762000268620001a8565b5b60006200027986828701620001d1565b93505060206200028c8682870162000236565b92505060406200029f8682870162000236565b9150509250925092565b6080516154b5620002d3600039600081816104c50152818161078d015261083301526154b56000f3fe608060405260043610620001035760003560e01c806390c7c0ec1162000097578063d575fe641162000061578063d575fe64146200032a578063ebdfbce5146200035a578063ef706adf14620003a0578063f2fde38b14620003ce576200010b565b806390c7c0ec1462000246578063a8d5fc501462000274578063b8fd9e6514620002b8578063b9520ce414620002e6576200010b565b80633fc8cef311620000d95780633fc8cef31462000188578063715018a614620001b85780638cb84e1814620001d25780638da5cb5b1462000216576200010b565b80630aa13b8c146200011057806320a57b4814620001405780633ccfd60b146200016e576200010b565b366200010b57005b600080fd5b3480156200011d57600080fd5b5062000128620003fc565b604051620001379190620013d3565b60405180910390f35b3480156200014d57600080fd5b506200016c600480360381019062000166919062001449565b62000422565b005b3480156200017b57600080fd5b506200018662000470565b005b3480156200019557600080fd5b50620001a0620004c3565b604051620001af9190620014a0565b60405180910390f35b348015620001c557600080fd5b50620001d0620004e7565b005b348015620001df57600080fd5b50620001fe6004803603810190620001f89190620014f8565b620004ff565b6040516200020d919062001550565b60405180910390f35b3480156200022357600080fd5b506200022e620005b9565b6040516200023d919062001550565b60405180910390f35b3480156200025357600080fd5b506200027260048036038101906200026c9190620015db565b620005e2565b005b3480156200028157600080fd5b50620002a060048036038101906200029a9190620017ce565b62000a0b565b604051620002af91906200189a565b60405180910390f35b348015620002c557600080fd5b50620002e46004803603810190620002de9190620018b7565b62000c5f565b005b348015620002f357600080fd5b506200031260048036038101906200030c91906200194d565b62000ddb565b60405162000321919062001a84565b60405180910390f35b3480156200033757600080fd5b506200034262000ef6565b60405162000351919062001ab9565b60405180910390f35b3480156200036757600080fd5b506200038660048036038101906200038091906200194d565b62000efc565b604051620003979392919062001b28565b60405180910390f35b348015620003ad57600080fd5b50620003cc6004803603810190620003c6919062001b6c565b62000fc3565b005b348015620003db57600080fd5b50620003fa6004803603810190620003f4919062001449565b620010fc565b005b600260009054906101000a900473ffffffffffffffffffffffffffffffffffffffff1681565b6200042c62001186565b80600260006101000a81548173ffffffffffffffffffffffffffffffffffffffff021916908373ffffffffffffffffffffffffffffffffffffffff16021790555050565b6200047a620005b9565b73ffffffffffffffffffffffffffffffffffffffff166108fc479081150290604051600060405180830381858888f19350505050158015620004c0573d6000803e3d6000fd5b50565b7f000000000000000000000000000000000000000000000000000000000000000081565b620004f162001186565b620004fd60006200120b565b565b6000808330600260009054906101000a900473ffffffffffffffffffffffffffffffffffffffff166040516020016200053b9392919062001b9e565b604051602081830303815290604052905060008360001b9050620005af81604051806020016200056b9062001319565b6020820181038252601f19601f82011660405250846040516020016200059392919062001c1d565b60405160208183030381529060405280519060200120620012cf565b9250505092915050565b60008060009054906101000a900473ffffffffffffffffffffffffffffffffffffffff16905090565b60006003600087815260200190815260200160002060008673ffffffffffffffffffffffffffffffffffffffff1673ffffffffffffffffffffffffffffffffffffffff1681526020019081526020016000209050600081600001541162000680576040517f08c379a0000000000000000000000000000000000000000000000000000000008152600401620006779062001ca6565b60405180910390fd5b85600260009054906101000a900473ffffffffffffffffffffffffffffffffffffffff1673ffffffffffffffffffffffffffffffffffffffff1663d94fe832336040518263ffffffff1660e01b8152600401620006de919062001550565b602060405180830381865afa158015620006fc573d6000803e3d6000fd5b505050506040513d601f19601f8201168201806040525081019062000722919062001cdf565b1462000765576040517f08c379a00000000000000000000000000000000000000000000000000000000081526004016200075c9062001d87565b60405180910390fd5b6000606460015483600001546200077d919062001dd8565b62000789919062001e52565b90507f000000000000000000000000000000000000000000000000000000000000000073ffffffffffffffffffffffffffffffffffffffff166323b872dd8730846040518463ffffffff1660e01b8152600401620007ea9392919062001e8a565b6020604051808303816000875af11580156200080a573d6000803e3d6000fd5b505050506040513d601f19601f8201168201806040525081019062000830919062001f04565b507f000000000000000000000000000000000000000000000000000000000000000073ffffffffffffffffffffffffffffffffffffffff166323b872dd873384866000015462000881919062001f36565b6040518463ffffffff1660e01b8152600401620008a19392919062001e8a565b6020604051808303816000875af1158015620008c1573d6000803e3d6000fd5b505050506040513d601f19601f82011682018060405250810190620008e7919062001f04565b50600260009054906101000a900473ffffffffffffffffffffffffffffffffffffffff1673ffffffffffffffffffffffffffffffffffffffff166316f7284233888888888860020154896001016040518863ffffffff1660e01b8152600401620009589796959493929190620020ad565b600060405180830381600087803b1580156200097357600080fd5b505af115801562000988573d6000803e3d6000fd5b50505050600082600001819055508573ffffffffffffffffffffffffffffffffffffffff16873373ffffffffffffffffffffffffffffffffffffffff167f7ed5731d9f2375d2bfbb722591b0b1c4bedf36d9a09d575bef96069a13ea737f8560000154604051620009fa919062001ab9565b60405180910390a450505050505050565b6000808560001b9050600062000a228888620004ff565b90506000813b90506000811462000a70576040517f08c379a000000000000000000000000000000000000000000000000000000000815260040162000a67906200217a565b60405180910390fd5b828930600260009054906101000a900473ffffffffffffffffffffffffffffffffffffffff1660405162000aa49062001319565b62000ab2939291906200219c565b8190604051809103906000f590508015801562000ad3573d6000803e3d6000fd5b5093508373ffffffffffffffffffffffffffffffffffffffff1663722a5fc18887896040518463ffffffff1660e01b815260040162000b1593929190620021d9565b600060405180830381600087803b15801562000b3057600080fd5b505af115801562000b45573d6000803e3d6000fd5b505050508373ffffffffffffffffffffffffffffffffffffffff168973ffffffffffffffffffffffffffffffffffffffff16600260009054906101000a900473ffffffffffffffffffffffffffffffffffffffff1673ffffffffffffffffffffffffffffffffffffffff1663d94fe8328c6040518263ffffffff1660e01b815260040162000bd4919062001550565b602060405180830381865afa15801562000bf2573d6000803e3d6000fd5b505050506040513d601f19601f8201168201806040525081019062000c18919062001cdf565b7f723f73331eaee88eec7fc68ef60ab6ed15e4b90d0472b55eb92fa43910bab6dd898960405162000c4b9291906200221d565b60405180910390a450505095945050505050565b6000841162000ca5576040517f08c379a000000000000000000000000000000000000000000000000000000000815260040162000c9c906200229a565b60405180910390fd5b604051806060016040528085815260200183838080601f016020809104026020016040519081016040528093929190818152602001838380828437600081840152601f19601f820116905080830192505050505050508152602001848152506003600087815260200190815260200160002060003373ffffffffffffffffffffffffffffffffffffffff1673ffffffffffffffffffffffffffffffffffffffff16815260200190815260200160002060008201518160000155602082015181600101908162000d7591906200246f565b50604082015181600201559050503373ffffffffffffffffffffffffffffffffffffffff16857fbdf1e76c2ba2a5c85b93bf78678a4a3b06d63b18422612dac8d7d5249ed467148660405162000dcc919062001ab9565b60405180910390a35050505050565b62000de562001327565b6003600084815260200190815260200160002060008373ffffffffffffffffffffffffffffffffffffffff1673ffffffffffffffffffffffffffffffffffffffff1681526020019081526020016000206040518060600160405290816000820154815260200160018201805462000e5c9062001fd3565b80601f016020809104026020016040519081016040528092919081815260200182805462000e8a9062001fd3565b801562000edb5780601f1062000eaf5761010080835404028352916020019162000edb565b820191906000526020600020905b81548152906001019060200180831162000ebd57829003601f168201915b50505050508152602001600282015481525050905092915050565b60015481565b60036020528160005260406000206020528060005260406000206000915091505080600001549080600101805462000f349062001fd3565b80601f016020809104026020016040519081016040528092919081815260200182805462000f629062001fd3565b801562000fb35780601f1062000f875761010080835404028352916020019162000fb3565b820191906000526020600020905b81548152906001019060200180831162000f9557829003601f168201915b5050505050908060020154905083565b60006003600083815260200190815260200160002060003373ffffffffffffffffffffffffffffffffffffffff1673ffffffffffffffffffffffffffffffffffffffff16815260200190815260200160002060000154116200105c576040517f08c379a000000000000000000000000000000000000000000000000000000000815260040162001053906200229a565b60405180910390fd5b60006003600083815260200190815260200160002060003373ffffffffffffffffffffffffffffffffffffffff1673ffffffffffffffffffffffffffffffffffffffff168152602001908152602001600020600001819055503373ffffffffffffffffffffffffffffffffffffffff16817f9a4dfa8787b349e9b45b60504f991c5c9f9cda8dadabdc8e4a3f4cb8608220a360405160405180910390a350565b6200110662001186565b600073ffffffffffffffffffffffffffffffffffffffff168173ffffffffffffffffffffffffffffffffffffffff160362001178576040517f08c379a00000000000000000000000000000000000000000000000000000000081526004016200116f90620025cc565b60405180910390fd5b62001183816200120b565b50565b62001190620012e6565b73ffffffffffffffffffffffffffffffffffffffff16620011b0620005b9565b73ffffffffffffffffffffffffffffffffffffffff161462001209576040517f08c379a000000000000000000000000000000000000000000000000000000000815260040162001200906200263e565b60405180910390fd5b565b60008060009054906101000a900473ffffffffffffffffffffffffffffffffffffffff169050816000806101000a81548173ffffffffffffffffffffffffffffffffffffffff021916908373ffffffffffffffffffffffffffffffffffffffff1602179055508173ffffffffffffffffffffffffffffffffffffffff168173ffffffffffffffffffffffffffffffffffffffff167f8be0079c531659141344cd1fd0a4f28419497f9722a3daafe3b4186f6b6457e060405160405180910390a35050565b6000620012de838330620012ee565b905092915050565b600033905090565b6000604051836040820152846020820152828152600b810160ff815360558120925050509392505050565b612e1f806200266183390190565b60405180606001604052806000815260200160608152602001600081525090565b600073ffffffffffffffffffffffffffffffffffffffff82169050919050565b6000819050919050565b6000620013936200138d620013878462001348565b62001368565b62001348565b9050919050565b6000620013a78262001372565b9050919050565b6000620013bb826200139a565b9050919050565b620013cd81620013ae565b82525050565b6000602082019050620013ea6000830184620013c2565b92915050565b6000604051905090565b600080fd5b600080fd5b6000620014118262001348565b9050919050565b620014238162001404565b81146200142f57600080fd5b50565b600081359050620014438162001418565b92915050565b600060208284031215620014625762001461620013fa565b5b6000620014728482850162001432565b91505092915050565b600062001488826200139a565b9050919050565b6200149a816200147b565b82525050565b6000602082019050620014b760008301846200148f565b92915050565b6000819050919050565b620014d281620014bd565b8114620014de57600080fd5b50565b600081359050620014f281620014c7565b92915050565b60008060408385031215620015125762001511620013fa565b5b6000620015228582860162001432565b92505060206200153585828601620014e1565b9150509250929050565b6200154a8162001404565b82525050565b60006020820190506200156760008301846200153f565b92915050565b600080fd5b600080fd5b600080fd5b60008083601f8401126200159557620015946200156d565b5b8235905067ffffffffffffffff811115620015b557620015b462001572565b5b602083019150836001820283011115620015d457620015d362001577565b5b9250929050565b600080600080600060808688031215620015fa57620015f9620013fa565b5b60006200160a88828901620014e1565b95505060206200161d8882890162001432565b94505060406200163088828901620014e1565b935050606086013567ffffffffffffffff811115620016545762001653620013ff565b5b62001662888289016200157c565b92509250509295509295909350565b600080fd5b6000601f19601f8301169050919050565b7f4e487b7100000000000000000000000000000000000000000000000000000000600052604160045260246000fd5b620016c18262001676565b810181811067ffffffffffffffff82111715620016e357620016e262001687565b5b80604052505050565b6000620016f8620013f0565b9050620017068282620016b6565b919050565b600067ffffffffffffffff82111562001729576200172862001687565b5b620017348262001676565b9050602081019050919050565b82818337600083830152505050565b60006200176762001761846200170b565b620016ec565b90508281526020810184848401111562001786576200178562001671565b5b6200179384828562001741565b509392505050565b600082601f830112620017b357620017b26200156d565b5b8135620017c584826020860162001750565b91505092915050565b600080600080600060a08688031215620017ed57620017ec620013fa565b5b6000620017fd8882890162001432565b95505060206200181088828901620014e1565b945050604086013567ffffffffffffffff811115620018345762001833620013ff565b5b62001842888289016200179b565b93505060606200185588828901620014e1565b92505060806200186888828901620014e1565b9150509295509295909350565b600062001882826200139a565b9050919050565b620018948162001875565b82525050565b6000602082019050620018b1600083018462001889565b92915050565b600080600080600060808688031215620018d657620018d5620013fa565b5b6000620018e688828901620014e1565b9550506020620018f988828901620014e1565b94505060406200190c88828901620014e1565b935050606086013567ffffffffffffffff81111562001930576200192f620013ff565b5b6200193e888289016200157c565b92509250509295509295909350565b60008060408385031215620019675762001966620013fa565b5b60006200197785828601620014e1565b92505060206200198a8582860162001432565b9150509250929050565b6200199f81620014bd565b82525050565b600081519050919050565b600082825260208201905092915050565b60005b83811015620019e1578082015181840152602081019050620019c4565b60008484015250505050565b6000620019fa82620019a5565b62001a068185620019b0565b935062001a18818560208601620019c1565b62001a238162001676565b840191505092915050565b600060608301600083015162001a48600086018262001994565b506020830151848203602086015262001a628282620019ed565b915050604083015162001a79604086018262001994565b508091505092915050565b6000602082019050818103600083015262001aa0818462001a2e565b905092915050565b62001ab381620014bd565b82525050565b600060208201905062001ad0600083018462001aa8565b92915050565b600082825260208201905092915050565b600062001af482620019a5565b62001b00818562001ad6565b935062001b12818560208601620019c1565b62001b1d8162001676565b840191505092915050565b600060608201905062001b3f600083018662001aa8565b818103602083015262001b53818562001ae7565b905062001b64604083018462001aa8565b949350505050565b60006020828403121562001b855762001b84620013fa565b5b600062001b9584828501620014e1565b91505092915050565b600060608201905062001bb560008301866200153f565b62001bc460208301856200153f565b62001bd36040830184620013c2565b949350505050565b600081905092915050565b600062001bf382620019a5565b62001bff818562001bdb565b935062001c11818560208601620019c1565b80840191505092915050565b600062001c2b828562001be6565b915062001c39828462001be6565b91508190509392505050565b600082825260208201905092915050565b7f4e6f206f6666657220746f20617070726f766500000000000000000000000000600082015250565b600062001c8e60138362001c45565b915062001c9b8262001c56565b602082019050919050565b6000602082019050818103600083015262001cc18162001c7f565b9050919050565b60008151905062001cd981620014c7565b92915050565b60006020828403121562001cf85762001cf7620013fa565b5b600062001d088482850162001cc8565b91505092915050565b7f4f6e6c7920746865206f776e65722063616e20617070726f766520746865206f60008201527f6666657200000000000000000000000000000000000000000000000000000000602082015250565b600062001d6f60248362001c45565b915062001d7c8262001d11565b604082019050919050565b6000602082019050818103600083015262001da28162001d60565b9050919050565b7f4e487b7100000000000000000000000000000000000000000000000000000000600052601160045260246000fd5b600062001de582620014bd565b915062001df283620014bd565b925082820262001e0281620014bd565b9150828204841483151762001e1c5762001e1b62001da9565b5b5092915050565b7f4e487b7100000000000000000000000000000000000000000000000000000000600052601260045260246000fd5b600062001e5f82620014bd565b915062001e6c83620014bd565b92508262001e7f5762001e7e62001e23565b5b828204905092915050565b600060608201905062001ea160008301866200153f565b62001eb060208301856200153f565b62001ebf604083018462001aa8565b949350505050565b60008115159050919050565b62001ede8162001ec7565b811462001eea57600080fd5b50565b60008151905062001efe8162001ed3565b92915050565b60006020828403121562001f1d5762001f1c620013fa565b5b600062001f2d8482850162001eed565b91505092915050565b600062001f4382620014bd565b915062001f5083620014bd565b925082820390508181111562001f6b5762001f6a62001da9565b5b92915050565b600062001f7f838562001ad6565b935062001f8e83858462001741565b62001f998362001676565b840190509392505050565b7f4e487b7100000000000000000000000000000000000000000000000000000000600052602260045260246000fd5b6000600282049050600182168062001fec57607f821691505b60208210810362002002576200200162001fa4565b5b50919050565b60008190508160005260206000209050919050565b600081546200202c8162001fd3565b62002038818662001ad6565b945060018216600081146200205657600181146200206d57620020a4565b60ff198316865281151560200286019350620020a4565b620020788562002008565b60005b838110156200209c578154818901526001820191506020810190506200207b565b808801955050505b50505092915050565b600060c082019050620020c4600083018a6200153f565b620020d360208301896200153f565b620020e2604083018862001aa8565b8181036060830152620020f781868862001f71565b905062002108608083018562001aa8565b81810360a08301526200211c81846200201d565b905098975050505050505050565b7f50726f787920616c726561647920657869737473000000000000000000000000600082015250565b60006200216260148362001c45565b91506200216f826200212a565b602082019050919050565b60006020820190508181036000830152620021958162002153565b9050919050565b6000606082019050620021b360008301866200153f565b620021c260208301856200153f565b620021d160408301846200153f565b949350505050565b60006060820190508181036000830152620021f5818662001ae7565b905062002206602083018562001aa8565b62002215604083018462001aa8565b949350505050565b600060408201905062002234600083018562001aa8565b62002243602083018462001aa8565b9392505050565b7f416d6f756e74206d7573742062652067726561746572207468616e207a65726f600082015250565b60006200228260208362001c45565b91506200228f826200224a565b602082019050919050565b60006020820190508181036000830152620022b58162002273565b9050919050565b60006020601f8301049050919050565b600082821b905092915050565b6000600883026200230b7fffffffffffffffffffffffffffffffffffffffffffffffffffffffffffffffff82620022cc565b620023178683620022cc565b95508019841693508086168417925050509392505050565b6000620023506200234a6200234484620014bd565b62001368565b620014bd565b9050919050565b6000819050919050565b6200236c836200232f565b620023846200237b8262002357565b848454620022d9565b825550505050565b600090565b6200239b6200238c565b620023a881848462002361565b505050565b5b81811015620023d057620023c460008262002391565b600181019050620023ae565b5050565b601f8211156200241f57620023e98162002008565b620023f484620022bc565b8101602085101562002404578190505b6200241c6200241385620022bc565b830182620023ad565b50505b505050565b600082821c905092915050565b6000620024446000198460080262002424565b1980831691505092915050565b60006200245f838362002431565b9150826002028217905092915050565b6200247a82620019a5565b67ffffffffffffffff81111562002496576200249562001687565b5b620024a2825462001fd3565b620024af828285620023d4565b600060209050601f831160018114620024e75760008415620024d2578287015190505b620024de858262002451565b8655506200254e565b601f198416620024f78662002008565b60005b828110156200252157848901518255600182019150602085019450602081019050620024fa565b868310156200254157848901516200253d601f89168262002431565b8355505b6001600288020188555050505b505050505050565b7f4f776e61626c653a206e6577206f776e657220697320746865207a65726f206160008201527f6464726573730000000000000000000000000000000000000000000000000000602082015250565b6000620025b460268362001c45565b9150620025c18262002556565b604082019050919050565b60006020820190508181036000830152620025e781620025a5565b9050919050565b7f4f776e61626c653a2063616c6c6572206973206e6f7420746865206f776e6572600082015250565b60006200262660208362001c45565b91506200263382620025ee565b602082019050919050565b60006020820190508181036000830152620026598162002617565b905091905056fe608060405260056002556000600760006101000a81548160ff0219169083151502179055503480156200003157600080fd5b5060405162002e1f38038062002e1f83398181016040528101906200005791906200048e565b620000776200006b6200011360201b60201c565b6200011b60201b60201c565b6200008883620001df60201b60201c565b81600160006101000a81548173ffffffffffffffffffffffffffffffffffffffff021916908373ffffffffffffffffffffffffffffffffffffffff16021790555080600360006101000a81548173ffffffffffffffffffffffffffffffffffffffff021916908373ffffffffffffffffffffffffffffffffffffffff160217905550505050620006e9565b600033905090565b60008060009054906101000a900473ffffffffffffffffffffffffffffffffffffffff169050816000806101000a81548173ffffffffffffffffffffffffffffffffffffffff021916908373ffffffffffffffffffffffffffffffffffffffff1602179055508173ffffffffffffffffffffffffffffffffffffffff168173ffffffffffffffffffffffffffffffffffffffff167f8be0079c531659141344cd1fd0a4f28419497f9722a3daafe3b4186f6b6457e060405160405180910390a35050565b620001ef6200027560201b60201c565b600073ffffffffffffffffffffffffffffffffffffffff168173ffffffffffffffffffffffffffffffffffffffff160362000261576040517f08c379a0000000000000000000000000000000000000000000000000000000008152600401620002589062000571565b60405180910390fd5b62000272816200011b60201b60201c565b50565b62000285620003fb60201b60201c565b73ffffffffffffffffffffffffffffffffffffffff16620002ab6200011360201b60201c565b73ffffffffffffffffffffffffffffffffffffffff16146200036957600454600854101562000311576040517f08c379a00000000000000000000000000000000000000000000000000000000081526004016200030890620005e3565b60405180910390fd5b600760009054906101000a900460ff1662000363576040517f08c379a00000000000000000000000000000000000000000000000000000000081526004016200035a9062000655565b60405180910390fd5b620003f9565b620003796200011360201b60201c565b73ffffffffffffffffffffffffffffffffffffffff166200039f620003fb60201b60201c565b73ffffffffffffffffffffffffffffffffffffffff1614620003f8576040517f08c379a0000000000000000000000000000000000000000000000000000000008152600401620003ef90620006c7565b60405180910390fd5b5b565b60008060009054906101000a900473ffffffffffffffffffffffffffffffffffffffff16905090565b600080fd5b600073ffffffffffffffffffffffffffffffffffffffff82169050919050565b6000620004568262000429565b9050919050565b620004688162000449565b81146200047457600080fd5b50565b60008151905062000488816200045d565b92915050565b600080600060608486031215620004aa57620004a962000424565b5b6000620004ba8682870162000477565b9350506020620004cd8682870162000477565b9250506040620004e08682870162000477565b9150509250925092565b600082825260208201905092915050565b7f4f776e61626c653a206e6577206f776e657220697320746865207a65726f206160008201527f6464726573730000000000000000000000000000000000000000000000000000602082015250565b600062000559602683620004ea565b91506200056682620004fb565b604082019050919050565b600060208201905081810360008301526200058c816200054a565b9050919050565b7f496e73756666696369656e742066756e64732073656e74000000000000000000600082015250565b6000620005cb601783620004ea565b9150620005d88262000593565b602082019050919050565b60006020820190508181036000830152620005fe81620005bc565b9050919050565b7f4e6f744c69737465640000000000000000000000000000000000000000000000600082015250565b60006200063d600983620004ea565b91506200064a8262000605565b602082019050919050565b6000602082019050818103600083015262000670816200062e565b9050919050565b7f4f776e61626c653a2063616c6c6572206973206e6f7420746865206f776e6572600082015250565b6000620006af602083620004ea565b9150620006bc8262000677565b602082019050919050565b60006020820190508181036000830152620006e281620006a0565b9050919050565b61272680620006f96000396000f3fe6080604052600436106101095760003560e01c8063722a5fc111610095578063a4b42b3311610064578063a4b42b33146102f1578063c45a01551461031c578063d575fe6414610347578063d910b05a14610372578063f2fde38b1461039d57610109565b8063722a5fc11461025857806381568eb8146102815780638cdf6bff1461029d5780638da5cb5b146102c657610109565b806329dcb0cf116100dc57806329dcb0cf146101bd5780633257b4f3146101e85780633ccfd60b146102135780635cacd0d21461022a578063715018a61461024157610109565b80630aa13b8c1461010e57806314d627d2146101395780631626ba7e1461015557806324ec759014610192575b600080fd5b34801561011a57600080fd5b506101236103c6565b60405161013091906116d2565b60405180910390f35b610153600480360381019061014e9190611885565b6103ec565b005b34801561016157600080fd5b5061017c60048036038101906101779190611917565b610480565b60405161018991906119ae565b60405180910390f35b34801561019e57600080fd5b506101a76104d2565b6040516101b491906119e2565b60405180910390f35b3480156101c957600080fd5b506101d26104d8565b6040516101df91906119e2565b60405180910390f35b3480156101f457600080fd5b506101fd6104de565b60405161020a91906119e2565b60405180910390f35b34801561021f57600080fd5b506102286106ce565b005b34801561023657600080fd5b5061023f610726565b005b34801561024d57600080fd5b50610256610859565b005b34801561026457600080fd5b5061027f600480360381019061027a9190611a29565b61086d565b005b61029b60048036038101906102969190611a98565b6109d4565b005b3480156102a957600080fd5b506102c460048036038101906102bf9190611b37565b610af2565b005b3480156102d257600080fd5b506102db610b96565b6040516102e89190611ba2565b60405180910390f35b3480156102fd57600080fd5b50610306610bbf565b6040516103139190611c3c565b60405180910390f35b34801561032857600080fd5b50610331610c4d565b60405161033e9190611ba2565b60405180910390f35b34801561035357600080fd5b5061035c610c73565b60405161036991906119e2565b60405180910390f35b34801561037e57600080fd5b50610387610c79565b6040516103949190611c79565b60405180910390f35b3480156103a957600080fd5b506103c460048036038101906103bf9190611c94565b610c8c565b005b600360009054906101000a900473ffffffffffffffffffffffffffffffffffffffff1681565b6103f4610d0f565b6103fe8282610efa565b3073ffffffffffffffffffffffffffffffffffffffff163373ffffffffffffffffffffffffffffffffffffffff166104346104de565b7f7895bd4ff6323b874827e7c09827afb49db435ec423c8487977702687b53fc493460405161046391906119e2565b60405180910390a461047481610c8c565b61047c6110d2565b5050565b60008061049561048e610b96565b8585611126565b905060006004546008541015905081806104ac5750805b156104c257631626ba7e60e01b925050506104cc565b600060e01b925050505b92915050565b60045481565b60065481565b600080600360009054906101000a900473ffffffffffffffffffffffffffffffffffffffff1673ffffffffffffffffffffffffffffffffffffffff1663d94fe832306040518263ffffffff1660e01b815260040161053c9190611ba2565b602060405180830381865afa158015610559573d6000803e3d6000fd5b505050506040513d601f19601f8201168201806040525081019061057d9190611cd6565b0361062c57600360009054906101000a900473ffffffffffffffffffffffffffffffffffffffff1673ffffffffffffffffffffffffffffffffffffffff1663d94fe8326105c8610b96565b6040518263ffffffff1660e01b81526004016105e49190611ba2565b602060405180830381865afa158015610601573d6000803e3d6000fd5b505050506040513d601f19601f820116820180604052508101906106259190611cd6565b90506106cb565b600360009054906101000a900473ffffffffffffffffffffffffffffffffffffffff1673ffffffffffffffffffffffffffffffffffffffff1663d94fe832306040518263ffffffff1660e01b81526004016106879190611ba2565b602060405180830381865afa1580156106a4573d6000803e3d6000fd5b505050506040513d601f19601f820116820180604052508101906106c89190611cd6565b90505b90565b6106d66111b5565b6106de610b96565b73ffffffffffffffffffffffffffffffffffffffff166108fc479081150290604051600060405180830381858888f19350505050158015610723573d6000803e3d6000fd5b50565b600160009054906101000a900473ffffffffffffffffffffffffffffffffffffffff1673ffffffffffffffffffffffffffffffffffffffff163373ffffffffffffffffffffffffffffffffffffffff1614806107b45750610785610b96565b73ffffffffffffffffffffffffffffffffffffffff163373ffffffffffffffffffffffffffffffffffffffff16145b6107f3576040517f08c379a00000000000000000000000000000000000000000000000000000000081526004016107ea90611d86565b60405180910390fd5b3373ffffffffffffffffffffffffffffffffffffffff166108126104de565b7f9e3387d71092fe1d8940a8bd35f19f9ac4261afe1a21988b5cc6d2c67772dfc0600454600654604051610847929190611da6565b60405180910390a36108576110d2565b565b6108616111b5565b61086b6000611310565b565b600160009054906101000a900473ffffffffffffffffffffffffffffffffffffffff1673ffffffffffffffffffffffffffffffffffffffff163373ffffffffffffffffffffffffffffffffffffffff1614806108fb57506108cc610b96565b73ffffffffffffffffffffffffffffffffffffffff163373ffffffffffffffffffffffffffffffffffffffff16145b61093a576040517f08c379a000000000000000000000000000000000000000000000000000000000815260040161093190611d86565b60405180910390fd5b82600590816109499190611fd1565b5081600681905550806004819055506001600760006101000a81548160ff0219169083151502179055503373ffffffffffffffffffffffffffffffffffffffff166109926104de565b7f98868c46d49b200d82c273c9f28d73265826ca6567690262736450563dfff64c6004546006546040516109c7929190611da6565b60405180910390a3505050565b6109dc610d0f565b6109e68484610efa565b8273ffffffffffffffffffffffffffffffffffffffff163373ffffffffffffffffffffffffffffffffffffffff16610a1c6104de565b7f7895bd4ff6323b874827e7c09827afb49db435ec423c8487977702687b53fc4934604051610a4b91906119e2565b60405180910390a4600360009054906101000a900473ffffffffffffffffffffffffffffffffffffffff1673ffffffffffffffffffffffffffffffffffffffff1663be45fd628484846040518463ffffffff1660e01b8152600401610ab2939291906120a3565b600060405180830381600087803b158015610acc57600080fd5b505af1158015610ae0573d6000803e3d6000fd5b50505050610aec6110d2565b50505050565b610afa6111b5565b600360009054906101000a900473ffffffffffffffffffffffffffffffffffffffff1673ffffffffffffffffffffffffffffffffffffffff1663be45fd62610b40610b96565b83856040518463ffffffff1660e01b8152600401610b60939291906120a3565b600060405180830381600087803b158015610b7a57600080fd5b505af1158015610b8e573d6000803e3d6000fd5b505050505050565b60008060009054906101000a900473ffffffffffffffffffffffffffffffffffffffff16905090565b60058054610bcc90611dfe565b80601f0160208091040260200160405190810160405280929190818152602001828054610bf890611dfe565b8015610c455780601f10610c1a57610100808354040283529160200191610c45565b820191906000526020600020905b815481529060010190602001808311610c2857829003601f168201915b505050505081565b600160009054906101000a900473ffffffffffffffffffffffffffffffffffffffff1681565b60025481565b600760009054906101000a900460ff1681565b610c946111b5565b600073ffffffffffffffffffffffffffffffffffffffff168173ffffffffffffffffffffffffffffffffffffffff1603610d03576040517f08c379a0000000000000000000000000000000000000000000000000000000008152600401610cfa90612153565b60405180910390fd5b610d0c81611310565b50565b600454341015610d54576040517f08c379a0000000000000000000000000000000000000000000000000000000008152600401610d4b906121bf565b60405180910390fd5b600760009054906101000a900460ff16610da3576040517f08c379a0000000000000000000000000000000000000000000000000000000008152600401610d9a9061222b565b60405180910390fd5b346008819055506000606460025434610dbc919061227a565b610dc691906122eb565b9050600160009054906101000a900473ffffffffffffffffffffffffffffffffffffffff1673ffffffffffffffffffffffffffffffffffffffff166108fc829081150290604051600060405180830381858888f19350505050158015610e30573d6000803e3d6000fd5b50610e39610b96565b73ffffffffffffffffffffffffffffffffffffffff166108fc82600454610e60919061231c565b9081150290604051600060405180830381858888f19350505050158015610e8b573d6000803e3d6000fd5b50600060045434610e9c919061231c565b1115610ef7573373ffffffffffffffffffffffffffffffffffffffff166108fc60045434610eca919061231c565b9081150290604051600060405180830381858888f19350505050158015610ef5573d6000803e3d6000fd5b505b50565b6000600360009054906101000a900473ffffffffffffffffffffffffffffffffffffffff1673ffffffffffffffffffffffffffffffffffffffff1663d94fe832306040518263ffffffff1660e01b8152600401610f579190611ba2565b602060405180830381865afa158015610f74573d6000803e3d6000fd5b505050506040513d601f19601f82011682018060405250810190610f989190611cd6565b0361104157600360009054906101000a900473ffffffffffffffffffffffffffffffffffffffff1673ffffffffffffffffffffffffffffffffffffffff166316f72842610fe3610b96565b306006546005600654886040518763ffffffff1660e01b815260040161100e969594939291906123d4565b600060405180830381600087803b15801561102857600080fd5b505af115801561103c573d6000803e3d6000fd5b505050505b600360009054906101000a900473ffffffffffffffffffffffffffffffffffffffff1673ffffffffffffffffffffffffffffffffffffffff1663f1f0b224826040518263ffffffff1660e01b815260040161109c9190611ba2565b600060405180830381600087803b1580156110b657600080fd5b505af11580156110ca573d6000803e3d6000fd5b505050505050565b600060088190555060405180602001604052806000815250600590816110f8919061244e565b50600060068190555060006004819055506000600760006101000a81548160ff021916908315150217905550565b600080600061113585856113d4565b915091506000600481111561114d5761114c612520565b5b8160048111156111605761115f612520565b5b14801561119857508573ffffffffffffffffffffffffffffffffffffffff168273ffffffffffffffffffffffffffffffffffffffff16145b806111aa57506111a9868686611425565b5b925050509392505050565b6111bd610b96565b73ffffffffffffffffffffffffffffffffffffffff166111db611569565b73ffffffffffffffffffffffffffffffffffffffff161461129157600454600854101561123d576040517f08c379a0000000000000000000000000000000000000000000000000000000008152600401611234906121bf565b60405180910390fd5b600760009054906101000a900460ff1661128c576040517f08c379a00000000000000000000000000000000000000000000000000000000081526004016112839061222b565b60405180910390fd5b61130e565b611299611569565b73ffffffffffffffffffffffffffffffffffffffff166112b7610b96565b73ffffffffffffffffffffffffffffffffffffffff161461130d576040517f08c379a00000000000000000000000000000000000000000000000000000000081526004016113049061259b565b60405180910390fd5b5b565b60008060009054906101000a900473ffffffffffffffffffffffffffffffffffffffff169050816000806101000a81548173ffffffffffffffffffffffffffffffffffffffff021916908373ffffffffffffffffffffffffffffffffffffffff1602179055508173ffffffffffffffffffffffffffffffffffffffff168173ffffffffffffffffffffffffffffffffffffffff167f8be0079c531659141344cd1fd0a4f28419497f9722a3daafe3b4186f6b6457e060405160405180910390a35050565b60008060418351036114155760008060006020860151925060408601519150606086015160001a905061140987828585611571565b9450945050505061141e565b60006002915091505b9250929050565b60008060008573ffffffffffffffffffffffffffffffffffffffff16631626ba7e60e01b868660405160240161145c9291906125ca565b604051602081830303815290604052907bffffffffffffffffffffffffffffffffffffffffffffffffffffffff19166020820180517bffffffffffffffffffffffffffffffffffffffffffffffffffffffff83818316178352505050506040516114c69190612636565b600060405180830381855afa9150503d8060008114611501576040519150601f19603f3d011682016040523d82523d6000602084013e611506565b606091505b509150915081801561151a57506020815110155b801561155e5750631626ba7e60e01b7bffffffffffffffffffffffffffffffffffffffffffffffffffffffff19168180602001905181019061155c9190612662565b145b925050509392505050565b600033905090565b6000807f7fffffffffffffffffffffffffffffff5d576e7357a4501ddfe92f46681b20a08360001c11156115ac57600060039150915061164a565b6000600187878787604051600081526020016040526040516115d194939291906126ab565b6020604051602081039080840390855afa1580156115f3573d6000803e3d6000fd5b505050602060405103519050600073ffffffffffffffffffffffffffffffffffffffff168173ffffffffffffffffffffffffffffffffffffffff16036116415760006001925092505061164a565b80600092509250505b94509492505050565b600073ffffffffffffffffffffffffffffffffffffffff82169050919050565b6000819050919050565b600061169861169361168e84611653565b611673565b611653565b9050919050565b60006116aa8261167d565b9050919050565b60006116bc8261169f565b9050919050565b6116cc816116b1565b82525050565b60006020820190506116e760008301846116c3565b92915050565b6000604051905090565b600080fd5b600080fd5b600080fd5b600080fd5b6000601f19601f8301169050919050565b7f4e487b7100000000000000000000000000000000000000000000000000000000600052604160045260246000fd5b6117548261170b565b810181811067ffffffffffffffff821117156117735761177261171c565b5b80604052505050565b60006117866116ed565b9050611792828261174b565b919050565b600067ffffffffffffffff8211156117b2576117b161171c565b5b6117bb8261170b565b9050602081019050919050565b82818337600083830152505050565b60006117ea6117e584611797565b61177c565b90508281526020810184848401111561180657611805611706565b5b6118118482856117c8565b509392505050565b600082601f83011261182e5761182d611701565b5b813561183e8482602086016117d7565b91505092915050565b600061185282611653565b9050919050565b61186281611847565b811461186d57600080fd5b50565b60008135905061187f81611859565b92915050565b6000806040838503121561189c5761189b6116f7565b5b600083013567ffffffffffffffff8111156118ba576118b96116fc565b5b6118c685828601611819565b92505060206118d785828601611870565b9150509250929050565b6000819050919050565b6118f4816118e1565b81146118ff57600080fd5b50565b600081359050611911816118eb565b92915050565b6000806040838503121561192e5761192d6116f7565b5b600061193c85828601611902565b925050602083013567ffffffffffffffff81111561195d5761195c6116fc565b5b61196985828601611819565b9150509250929050565b60007fffffffff0000000000000000000000000000000000000000000000000000000082169050919050565b6119a881611973565b82525050565b60006020820190506119c3600083018461199f565b92915050565b6000819050919050565b6119dc816119c9565b82525050565b60006020820190506119f760008301846119d3565b92915050565b611a06816119c9565b8114611a1157600080fd5b50565b600081359050611a23816119fd565b92915050565b600080600060608486031215611a4257611a416116f7565b5b600084013567ffffffffffffffff811115611a6057611a5f6116fc565b5b611a6c86828701611819565b9350506020611a7d86828701611a14565b9250506040611a8e86828701611a14565b9150509250925092565b60008060008060808587031215611ab257611ab16116f7565b5b600085013567ffffffffffffffff811115611ad057611acf6116fc565b5b611adc87828801611819565b9450506020611aed87828801611870565b9350506040611afe87828801611a14565b925050606085013567ffffffffffffffff811115611b1f57611b1e6116fc565b5b611b2b87828801611819565b91505092959194509250565b60008060408385031215611b4e57611b4d6116f7565b5b600083013567ffffffffffffffff811115611b6c57611b6b6116fc565b5b611b7885828601611819565b9250506020611b8985828601611a14565b9150509250929050565b611b9c81611847565b82525050565b6000602082019050611bb76000830184611b93565b92915050565b600081519050919050565b600082825260208201905092915050565b60005b83811015611bf7578082015181840152602081019050611bdc565b60008484015250505050565b6000611c0e82611bbd565b611c188185611bc8565b9350611c28818560208601611bd9565b611c318161170b565b840191505092915050565b60006020820190508181036000830152611c568184611c03565b905092915050565b60008115159050919050565b611c7381611c5e565b82525050565b6000602082019050611c8e6000830184611c6a565b92915050565b600060208284031215611caa57611ca96116f7565b5b6000611cb884828501611870565b91505092915050565b600081519050611cd0816119fd565b92915050565b600060208284031215611cec57611ceb6116f7565b5b6000611cfa84828501611cc1565b91505092915050565b600082825260208201905092915050565b7f4f6e6c7920666163746f7279206f72206f776e65722063616e2063616c6c207460008201527f6869732066756e6374696f6e0000000000000000000000000000000000000000602082015250565b6000611d70602c83611d03565b9150611d7b82611d14565b604082019050919050565b60006020820190508181036000830152611d9f81611d63565b9050919050565b6000604082019050611dbb60008301856119d3565b611dc860208301846119d3565b9392505050565b7f4e487b7100000000000000000000000000000000000000000000000000000000600052602260045260246000fd5b60006002820490506001821680611e1657607f821691505b602082108103611e2957611e28611dcf565b5b50919050565b60008190508160005260206000209050919050565b60006020601f8301049050919050565b600082821b905092915050565b600060088302611e917fffffffffffffffffffffffffffffffffffffffffffffffffffffffffffffffff82611e54565b611e9b8683611e54565b95508019841693508086168417925050509392505050565b6000611ece611ec9611ec4846119c9565b611673565b6119c9565b9050919050565b6000819050919050565b611ee883611eb3565b611efc611ef482611ed5565b848454611e61565b825550505050565b600090565b611f11611f04565b611f1c818484611edf565b505050565b5b81811015611f4057611f35600082611f09565b600181019050611f22565b5050565b601f821115611f8557611f5681611e2f565b611f5f84611e44565b81016020851015611f6e578190505b611f82611f7a85611e44565b830182611f21565b50505b505050565b600082821c905092915050565b6000611fa860001984600802611f8a565b1980831691505092915050565b6000611fc18383611f97565b9150826002028217905092915050565b611fda82611bbd565b67ffffffffffffffff811115611ff357611ff261171c565b5b611ffd8254611dfe565b612008828285611f44565b600060209050601f83116001811461203b5760008415612029578287015190505b6120338582611fb5565b86555061209b565b601f19841661204986611e2f565b60005b828110156120715784890151825560018201915060208501945060208101905061204c565b8683101561208e578489015161208a601f891682611f97565b8355505b6001600288020188555050505b505050505050565b60006060820190506120b86000830186611b93565b6120c560208301856119d3565b81810360408301526120d78184611c03565b9050949350505050565b7f4f776e61626c653a206e6577206f776e657220697320746865207a65726f206160008201527f6464726573730000000000000000000000000000000000000000000000000000602082015250565b600061213d602683611d03565b9150612148826120e1565b604082019050919050565b6000602082019050818103600083015261216c81612130565b9050919050565b7f496e73756666696369656e742066756e64732073656e74000000000000000000600082015250565b60006121a9601783611d03565b91506121b482612173565b602082019050919050565b600060208201905081810360008301526121d88161219c565b9050919050565b7f4e6f744c69737465640000000000000000000000000000000000000000000000600082015250565b6000612215600983611d03565b9150612220826121df565b602082019050919050565b6000602082019050818103600083015261224481612208565b9050919050565b7f4e487b7100000000000000000000000000000000000000000000000000000000600052601160045260246000fd5b6000612285826119c9565b9150612290836119c9565b925082820261229e816119c9565b915082820484148315176122b5576122b461224b565b5b5092915050565b7f4e487b7100000000000000000000000000000000000000000000000000000000600052601260045260246000fd5b60006122f6826119c9565b9150612301836119c9565b925082612311576123106122bc565b5b828204905092915050565b6000612327826119c9565b9150612332836119c9565b925082820390508181111561234a5761234961224b565b5b92915050565b6000815461235d81611dfe565b6123678186611bc8565b945060018216600081146123825760018114612398576123cb565b60ff1983168652811515602002860193506123cb565b6123a185611e2f565b60005b838110156123c3578154818901526001820191506020810190506123a4565b808801955050505b50505092915050565b600060c0820190506123e96000830189611b93565b6123f66020830188611b93565b61240360408301876119d3565b81810360608301526124158186612350565b905061242460808301856119d3565b81810360a08301526124368184611c03565b9050979650505050505050565b600081519050919050565b61245782612443565b67ffffffffffffffff8111156124705761246f61171c565b5b61247a8254611dfe565b612485828285611f44565b600060209050601f8311600181146124b857600084156124a6578287015190505b6124b08582611fb5565b865550612518565b601f1984166124c686611e2f565b60005b828110156124ee578489015182556001820191506020850194506020810190506124c9565b8683101561250b5784890151612507601f891682611f97565b8355505b6001600288020188555050505b505050505050565b7f4e487b7100000000000000000000000000000000000000000000000000000000600052602160045260246000fd5b7f4f776e61626c653a2063616c6c6572206973206e6f7420746865206f776e6572600082015250565b6000612585602083611d03565b91506125908261254f565b602082019050919050565b600060208201905081810360008301526125b481612578565b9050919050565b6125c4816118e1565b82525050565b60006040820190506125df60008301856125bb565b81810360208301526125f18184611c03565b90509392505050565b600081905092915050565b600061261082611bbd565b61261a81856125fa565b935061262a818560208601611bd9565b80840191505092915050565b60006126428284612605565b915081905092915050565b60008151905061265c816118eb565b92915050565b600060208284031215612678576126776116f7565b5b60006126868482850161264d565b91505092915050565b600060ff82169050919050565b6126a58161268f565b82525050565b60006080820190506126c060008301876125bb565b6126cd602083018661269c565b6126da60408301856125bb565b6126e760608301846125bb565b9594505050505056fea2646970667358221220e11553db134d0448158b45a46ccb18cb31d6340fd39fc12e08fc4c320256773364736f6c63430008150033a2646970667358221220206f33a9f8d385536830a3cd3a2370d3645c27519d31021ad24c153ccf961e9164736f6c63430008150033",
  "linkReferences": {},
  "deployedLinkReferences": {}
}